{
	"ControleBaterias.sol": {
		"RegistroDeBaterias": {
			"abi": [
				{
					"inputs": [],
					"stateMutability": "nonpayable",
					"type": "constructor"
				},
				{
					"inputs": [
						{
							"internalType": "uint256",
							"name": "",
							"type": "uint256"
						}
					],
					"name": "baterias",
					"outputs": [
						{
							"internalType": "string",
							"name": "tipo",
							"type": "string"
						},
						{
							"internalType": "string",
							"name": "uso",
							"type": "string"
						},
						{
							"internalType": "uint256",
							"name": "tensao",
							"type": "uint256"
						},
						{
							"internalType": "string",
							"name": "dataProd",
							"type": "string"
						},
						{
							"internalType": "string",
							"name": "lote",
							"type": "string"
						}
					],
					"stateMutability": "view",
					"type": "function"
				},
				{
					"inputs": [
						{
							"internalType": "uint256",
							"name": "index",
							"type": "uint256"
						}
					],
					"name": "consultarBateria",
					"outputs": [
						{
							"internalType": "string",
							"name": "tipo",
							"type": "string"
						},
						{
							"internalType": "string",
							"name": "uso",
							"type": "string"
						},
						{
							"internalType": "uint256",
							"name": "tensao",
							"type": "uint256"
						},
						{
							"internalType": "string",
							"name": "dataProd",
							"type": "string"
						},
						{
							"internalType": "string",
							"name": "lote",
							"type": "string"
						}
					],
					"stateMutability": "view",
					"type": "function"
				},
				{
					"inputs": [],
					"name": "dono",
					"outputs": [
						{
							"internalType": "address",
							"name": "",
							"type": "address"
						}
					],
					"stateMutability": "view",
					"type": "function"
				},
				{
					"inputs": [
						{
							"internalType": "string",
							"name": "tipo",
							"type": "string"
						},
						{
							"internalType": "string",
							"name": "uso",
							"type": "string"
						},
						{
							"internalType": "uint256",
							"name": "tensao",
							"type": "uint256"
						},
						{
							"internalType": "string",
							"name": "dataProd",
							"type": "string"
						},
						{
							"internalType": "string",
							"name": "lote",
							"type": "string"
						}
					],
					"name": "registrarBateria",
					"outputs": [],
					"stateMutability": "nonpayable",
					"type": "function"
				},
				{
					"inputs": [],
					"name": "totalBaterias",
					"outputs": [
						{
							"internalType": "uint256",
							"name": "",
							"type": "uint256"
						}
					],
					"stateMutability": "view",
					"type": "function"
				}
			],
			"devdoc": {
				"kind": "dev",
				"methods": {
					"registrarBateria(string,string,uint256,string,string)": {
						"params": {
							"dataProd": "Data de produção (formato string)",
							"lote": "Número do lote",
							"tensao": "Tensão nominal em volts",
							"tipo": "Tipo da bateria",
							"uso": "Aplicação da bateria"
						}
					}
				},
				"title": "Registro de produção de baterias",
				"version": 1
			},
			"evm": {
				"assembly": "    /* \"ControleBaterias.sol\":178:1572  contract RegistroDeBaterias {... */\n  mstore(0x40, 0x80)\n    /* \"ControleBaterias.sol\":241:291  constructor() {... */\n  callvalue\n  dup1\n  iszero\n  tag_1\n  jumpi\n  0x00\n  dup1\n  revert\ntag_1:\n  pop\n    /* \"ControleBaterias.sol\":273:283  msg.sender */\n  caller\n    /* \"ControleBaterias.sol\":266:270  dono */\n  0x00\n  dup1\n    /* \"ControleBaterias.sol\":266:283  dono = msg.sender */\n  0x0100\n  exp\n  dup2\n  sload\n  dup2\n  0xffffffffffffffffffffffffffffffffffffffff\n  mul\n  not\n  and\n  swap1\n  dup4\n  0xffffffffffffffffffffffffffffffffffffffff\n  and\n  mul\n  or\n  swap1\n  sstore\n  pop\n    /* \"ControleBaterias.sol\":178:1572  contract RegistroDeBaterias {... */\n  dataSize(sub_0)\n  dup1\n  dataOffset(sub_0)\n  0x00\n  codecopy\n  0x00\n  return\nstop\n\nsub_0: assembly {\n        /* \"ControleBaterias.sol\":178:1572  contract RegistroDeBaterias {... */\n      mstore(0x40, 0x80)\n      callvalue\n      dup1\n      iszero\n      tag_1\n      jumpi\n      0x00\n      dup1\n      revert\n    tag_1:\n      pop\n      jumpi(tag_2, lt(calldatasize, 0x04))\n      shr(0xe0, calldataload(0x00))\n      dup1\n      0x70514bea\n      eq\n      tag_3\n      jumpi\n      dup1\n      0x7da30b73\n      eq\n      tag_4\n      jumpi\n      dup1\n      0x99ce4f3e\n      eq\n      tag_5\n      jumpi\n      dup1\n      0xbd8261fe\n      eq\n      tag_6\n      jumpi\n      dup1\n      0xce6bf005\n      eq\n      tag_7\n      jumpi\n    tag_2:\n      0x00\n      dup1\n      revert\n        /* \"ControleBaterias.sol\":213:232  address public dono */\n    tag_3:\n      tag_8\n      tag_9\n      jump\t// in\n    tag_8:\n      mload(0x40)\n      tag_10\n      swap2\n      swap1\n      tag_11\n      jump\t// in\n    tag_10:\n      mload(0x40)\n      dup1\n      swap2\n      sub\n      swap1\n      return\n        /* \"ControleBaterias.sol\":446:471  Bateria[] public baterias */\n    tag_4:\n      tag_12\n      0x04\n      dup1\n      calldatasize\n      sub\n      dup2\n      add\n      swap1\n      tag_13\n      swap2\n      swap1\n      tag_14\n      jump\t// in\n    tag_13:\n      tag_15\n      jump\t// in\n    tag_12:\n      mload(0x40)\n      tag_16\n      swap6\n      swap5\n      swap4\n      swap3\n      swap2\n      swap1\n      tag_17\n      jump\t// in\n    tag_16:\n      mload(0x40)\n      dup1\n      swap2\n      sub\n      swap1\n      return\n        /* \"ControleBaterias.sol\":749:1009  function registrarBateria(... */\n    tag_5:\n      tag_18\n      0x04\n      dup1\n      calldatasize\n      sub\n      dup2\n      add\n      swap1\n      tag_19\n      swap2\n      swap1\n      tag_20\n      jump\t// in\n    tag_19:\n      tag_21\n      jump\t// in\n    tag_18:\n      stop\n        /* \"ControleBaterias.sol\":1079:1408  function consultarBateria(uint256 index) public view returns (... */\n    tag_6:\n      tag_22\n      0x04\n      dup1\n      calldatasize\n      sub\n      dup2\n      add\n      swap1\n      tag_23\n      swap2\n      swap1\n      tag_14\n      jump\t// in\n    tag_23:\n      tag_24\n      jump\t// in\n    tag_22:\n      mload(0x40)\n      tag_25\n      swap6\n      swap5\n      swap4\n      swap3\n      swap2\n      swap1\n      tag_17\n      jump\t// in\n    tag_25:\n      mload(0x40)\n      dup1\n      swap2\n      sub\n      swap1\n      return\n        /* \"ControleBaterias.sol\":1473:1569  function totalBaterias() public view returns (uint256) {... */\n    tag_7:\n      tag_26\n      tag_27\n      jump\t// in\n    tag_26:\n      mload(0x40)\n      tag_28\n      swap2\n      swap1\n      tag_29\n      jump\t// in\n    tag_28:\n      mload(0x40)\n      dup1\n      swap2\n      sub\n      swap1\n      return\n        /* \"ControleBaterias.sol\":213:232  address public dono */\n    tag_9:\n      0x00\n      dup1\n      sload\n      swap1\n      0x0100\n      exp\n      swap1\n      div\n      0xffffffffffffffffffffffffffffffffffffffff\n      and\n      dup2\n      jump\t// out\n        /* \"ControleBaterias.sol\":446:471  Bateria[] public baterias */\n    tag_15:\n      0x01\n      dup2\n      dup2\n      sload\n      dup2\n      lt\n      tag_30\n      jumpi\n      0x00\n      dup1\n      revert\n    tag_30:\n      swap1\n      0x00\n      mstore\n      keccak256(0x00, 0x20)\n      swap1\n      0x05\n      mul\n      add\n      0x00\n      swap2\n      pop\n      swap1\n      pop\n      dup1\n      0x00\n      add\n      dup1\n      sload\n      tag_32\n      swap1\n      tag_33\n      jump\t// in\n    tag_32:\n      dup1\n      0x1f\n      add\n      0x20\n      dup1\n      swap2\n      div\n      mul\n      0x20\n      add\n      mload(0x40)\n      swap1\n      dup2\n      add\n      0x40\n      mstore\n      dup1\n      swap3\n      swap2\n      swap1\n      dup2\n      dup2\n      mstore\n      0x20\n      add\n      dup3\n      dup1\n      sload\n      tag_34\n      swap1\n      tag_33\n      jump\t// in\n    tag_34:\n      dup1\n      iszero\n      tag_35\n      jumpi\n      dup1\n      0x1f\n      lt\n      tag_36\n      jumpi\n      0x0100\n      dup1\n      dup4\n      sload\n      div\n      mul\n      dup4\n      mstore\n      swap2\n      0x20\n      add\n      swap2\n      jump(tag_35)\n    tag_36:\n      dup3\n      add\n      swap2\n      swap1\n      0x00\n      mstore\n      keccak256(0x00, 0x20)\n      swap1\n    tag_37:\n      dup2\n      sload\n      dup2\n      mstore\n      swap1\n      0x01\n      add\n      swap1\n      0x20\n      add\n      dup1\n      dup4\n      gt\n      tag_37\n      jumpi\n      dup3\n      swap1\n      sub\n      0x1f\n      and\n      dup3\n      add\n      swap2\n    tag_35:\n      pop\n      pop\n      pop\n      pop\n      pop\n      swap1\n      dup1\n      0x01\n      add\n      dup1\n      sload\n      tag_38\n      swap1\n      tag_33\n      jump\t// in\n    tag_38:\n      dup1\n      0x1f\n      add\n      0x20\n      dup1\n      swap2\n      div\n      mul\n      0x20\n      add\n      mload(0x40)\n      swap1\n      dup2\n      add\n      0x40\n      mstore\n      dup1\n      swap3\n      swap2\n      swap1\n      dup2\n      dup2\n      mstore\n      0x20\n      add\n      dup3\n      dup1\n      sload\n      tag_39\n      swap1\n      tag_33\n      jump\t// in\n    tag_39:\n      dup1\n      iszero\n      tag_40\n      jumpi\n      dup1\n      0x1f\n      lt\n      tag_41\n      jumpi\n      0x0100\n      dup1\n      dup4\n      sload\n      div\n      mul\n      dup4\n      mstore\n      swap2\n      0x20\n      add\n      swap2\n      jump(tag_40)\n    tag_41:\n      dup3\n      add\n      swap2\n      swap1\n      0x00\n      mstore\n      keccak256(0x00, 0x20)\n      swap1\n    tag_42:\n      dup2\n      sload\n      dup2\n      mstore\n      swap1\n      0x01\n      add\n      swap1\n      0x20\n      add\n      dup1\n      dup4\n      gt\n      tag_42\n      jumpi\n      dup3\n      swap1\n      sub\n      0x1f\n      and\n      dup3\n      add\n      swap2\n    tag_40:\n      pop\n      pop\n      pop\n      pop\n      pop\n      swap1\n      dup1\n      0x02\n      add\n      sload\n      swap1\n      dup1\n      0x03\n      add\n      dup1\n      sload\n      tag_43\n      swap1\n      tag_33\n      jump\t// in\n    tag_43:\n      dup1\n      0x1f\n      add\n      0x20\n      dup1\n      swap2\n      div\n      mul\n      0x20\n      add\n      mload(0x40)\n      swap1\n      dup2\n      add\n      0x40\n      mstore\n      dup1\n      swap3\n      swap2\n      swap1\n      dup2\n      dup2\n      mstore\n      0x20\n      add\n      dup3\n      dup1\n      sload\n      tag_44\n      swap1\n      tag_33\n      jump\t// in\n    tag_44:\n      dup1\n      iszero\n      tag_45\n      jumpi\n      dup1\n      0x1f\n      lt\n      tag_46\n      jumpi\n      0x0100\n      dup1\n      dup4\n      sload\n      div\n      mul\n      dup4\n      mstore\n      swap2\n      0x20\n      add\n      swap2\n      jump(tag_45)\n    tag_46:\n      dup3\n      add\n      swap2\n      swap1\n      0x00\n      mstore\n      keccak256(0x00, 0x20)\n      swap1\n    tag_47:\n      dup2\n      sload\n      dup2\n      mstore\n      swap1\n      0x01\n      add\n      swap1\n      0x20\n      add\n      dup1\n      dup4\n      gt\n      tag_47\n      jumpi\n      dup3\n      swap1\n      sub\n      0x1f\n      and\n      dup3\n      add\n      swap2\n    tag_45:\n      pop\n      pop\n      pop\n      pop\n      pop\n      swap1\n      dup1\n      0x04\n      add\n      dup1\n      sload\n      tag_48\n      swap1\n      tag_33\n      jump\t// in\n    tag_48:\n      dup1\n      0x1f\n      add\n      0x20\n      dup1\n      swap2\n      div\n      mul\n      0x20\n      add\n      mload(0x40)\n      swap1\n      dup2\n      add\n      0x40\n      mstore\n      dup1\n      swap3\n      swap2\n      swap1\n      dup2\n      dup2\n      mstore\n      0x20\n      add\n      dup3\n      dup1\n      sload\n      tag_49\n      swap1\n      tag_33\n      jump\t// in\n    tag_49:\n      dup1\n      iszero\n      tag_50\n      jumpi\n      dup1\n      0x1f\n      lt\n      tag_51\n      jumpi\n      0x0100\n      dup1\n      dup4\n      sload\n      div\n      mul\n      dup4\n      mstore\n      swap2\n      0x20\n      add\n      swap2\n      jump(tag_50)\n    tag_51:\n      dup3\n      add\n      swap2\n      swap1\n      0x00\n      mstore\n      keccak256(0x00, 0x20)\n      swap1\n    tag_52:\n      dup2\n      sload\n      dup2\n      mstore\n      swap1\n      0x01\n      add\n      swap1\n      0x20\n      add\n      dup1\n      dup4\n      gt\n      tag_52\n      jumpi\n      dup3\n      swap1\n      sub\n      0x1f\n      and\n      dup3\n      add\n      swap2\n    tag_50:\n      pop\n      pop\n      pop\n      pop\n      pop\n      swap1\n      pop\n      dup6\n      jump\t// out\n        /* \"ControleBaterias.sol\":749:1009  function registrarBateria(... */\n    tag_21:\n        /* \"ControleBaterias.sol\":944:952  baterias */\n      0x01\n        /* \"ControleBaterias.sol\":958:1000  Bateria(tipo, uso, tensao, dataProd, lote) */\n      mload(0x40)\n      dup1\n      0xa0\n      add\n      0x40\n      mstore\n      dup1\n        /* \"ControleBaterias.sol\":966:970  tipo */\n      dup8\n        /* \"ControleBaterias.sol\":958:1000  Bateria(tipo, uso, tensao, dataProd, lote) */\n      dup2\n      mstore\n      0x20\n      add\n        /* \"ControleBaterias.sol\":972:975  uso */\n      dup7\n        /* \"ControleBaterias.sol\":958:1000  Bateria(tipo, uso, tensao, dataProd, lote) */\n      dup2\n      mstore\n      0x20\n      add\n        /* \"ControleBaterias.sol\":977:983  tensao */\n      dup6\n        /* \"ControleBaterias.sol\":958:1000  Bateria(tipo, uso, tensao, dataProd, lote) */\n      dup2\n      mstore\n      0x20\n      add\n        /* \"ControleBaterias.sol\":985:993  dataProd */\n      dup5\n        /* \"ControleBaterias.sol\":958:1000  Bateria(tipo, uso, tensao, dataProd, lote) */\n      dup2\n      mstore\n      0x20\n      add\n        /* \"ControleBaterias.sol\":995:999  lote */\n      dup4\n        /* \"ControleBaterias.sol\":958:1000  Bateria(tipo, uso, tensao, dataProd, lote) */\n      dup2\n      mstore\n      pop\n        /* \"ControleBaterias.sol\":944:1001  baterias.push(Bateria(tipo, uso, tensao, dataProd, lote)) */\n      swap1\n      dup1\n      0x01\n      dup2\n      sload\n      add\n      dup1\n      dup3\n      sstore\n      dup1\n      swap2\n      pop\n      pop\n      0x01\n      swap1\n      sub\n      swap1\n      0x00\n      mstore\n      keccak256(0x00, 0x20)\n      swap1\n      0x05\n      mul\n      add\n      0x00\n      swap1\n      swap2\n      swap1\n      swap2\n      swap1\n      swap2\n      pop\n      0x00\n      dup3\n      add\n      mload\n      dup2\n      0x00\n      add\n      swap1\n      dup2\n      tag_55\n      swap2\n      swap1\n      tag_56\n      jump\t// in\n    tag_55:\n      pop\n      0x20\n      dup3\n      add\n      mload\n      dup2\n      0x01\n      add\n      swap1\n      dup2\n      tag_57\n      swap2\n      swap1\n      tag_56\n      jump\t// in\n    tag_57:\n      pop\n      0x40\n      dup3\n      add\n      mload\n      dup2\n      0x02\n      add\n      sstore\n      0x60\n      dup3\n      add\n      mload\n      dup2\n      0x03\n      add\n      swap1\n      dup2\n      tag_58\n      swap2\n      swap1\n      tag_56\n      jump\t// in\n    tag_58:\n      pop\n      0x80\n      dup3\n      add\n      mload\n      dup2\n      0x04\n      add\n      swap1\n      dup2\n      tag_59\n      swap2\n      swap1\n      tag_56\n      jump\t// in\n    tag_59:\n      pop\n      pop\n      pop\n        /* \"ControleBaterias.sol\":749:1009  function registrarBateria(... */\n      pop\n      pop\n      pop\n      pop\n      pop\n      jump\t// out\n        /* \"ControleBaterias.sol\":1079:1408  function consultarBateria(uint256 index) public view returns (... */\n    tag_24:\n        /* \"ControleBaterias.sol\":1151:1169  string memory tipo */\n      0x60\n        /* \"ControleBaterias.sol\":1180:1197  string memory uso */\n      dup1\n        /* \"ControleBaterias.sol\":1208:1222  uint256 tensao */\n      0x00\n        /* \"ControleBaterias.sol\":1233:1255  string memory dataProd */\n      0x60\n        /* \"ControleBaterias.sol\":1266:1284  string memory lote */\n      dup1\n        /* \"ControleBaterias.sol\":1303:1319  Bateria memory b */\n      0x00\n        /* \"ControleBaterias.sol\":1322:1330  baterias */\n      0x01\n        /* \"ControleBaterias.sol\":1331:1336  index */\n      dup8\n        /* \"ControleBaterias.sol\":1322:1337  baterias[index] */\n      dup2\n      sload\n      dup2\n      lt\n      tag_61\n      jumpi\n      tag_62\n      tag_63\n      jump\t// in\n    tag_62:\n    tag_61:\n      swap1\n      0x00\n      mstore\n      keccak256(0x00, 0x20)\n      swap1\n      0x05\n      mul\n      add\n        /* \"ControleBaterias.sol\":1303:1337  Bateria memory b = baterias[index] */\n      mload(0x40)\n      dup1\n      0xa0\n      add\n      0x40\n      mstore\n      swap1\n      dup2\n      0x00\n      dup3\n      add\n      dup1\n      sload\n      tag_65\n      swap1\n      tag_33\n      jump\t// in\n    tag_65:\n      dup1\n      0x1f\n      add\n      0x20\n      dup1\n      swap2\n      div\n      mul\n      0x20\n      add\n      mload(0x40)\n      swap1\n      dup2\n      add\n      0x40\n      mstore\n      dup1\n      swap3\n      swap2\n      swap1\n      dup2\n      dup2\n      mstore\n      0x20\n      add\n      dup3\n      dup1\n      sload\n      tag_66\n      swap1\n      tag_33\n      jump\t// in\n    tag_66:\n      dup1\n      iszero\n      tag_67\n      jumpi\n      dup1\n      0x1f\n      lt\n      tag_68\n      jumpi\n      0x0100\n      dup1\n      dup4\n      sload\n      div\n      mul\n      dup4\n      mstore\n      swap2\n      0x20\n      add\n      swap2\n      jump(tag_67)\n    tag_68:\n      dup3\n      add\n      swap2\n      swap1\n      0x00\n      mstore\n      keccak256(0x00, 0x20)\n      swap1\n    tag_69:\n      dup2\n      sload\n      dup2\n      mstore\n      swap1\n      0x01\n      add\n      swap1\n      0x20\n      add\n      dup1\n      dup4\n      gt\n      tag_69\n      jumpi\n      dup3\n      swap1\n      sub\n      0x1f\n      and\n      dup3\n      add\n      swap2\n    tag_67:\n      pop\n      pop\n      pop\n      pop\n      pop\n      dup2\n      mstore\n      0x20\n      add\n      0x01\n      dup3\n      add\n      dup1\n      sload\n      tag_70\n      swap1\n      tag_33\n      jump\t// in\n    tag_70:\n      dup1\n      0x1f\n      add\n      0x20\n      dup1\n      swap2\n      div\n      mul\n      0x20\n      add\n      mload(0x40)\n      swap1\n      dup2\n      add\n      0x40\n      mstore\n      dup1\n      swap3\n      swap2\n      swap1\n      dup2\n      dup2\n      mstore\n      0x20\n      add\n      dup3\n      dup1\n      sload\n      tag_71\n      swap1\n      tag_33\n      jump\t// in\n    tag_71:\n      dup1\n      iszero\n      tag_72\n      jumpi\n      dup1\n      0x1f\n      lt\n      tag_73\n      jumpi\n      0x0100\n      dup1\n      dup4\n      sload\n      div\n      mul\n      dup4\n      mstore\n      swap2\n      0x20\n      add\n      swap2\n      jump(tag_72)\n    tag_73:\n      dup3\n      add\n      swap2\n      swap1\n      0x00\n      mstore\n      keccak256(0x00, 0x20)\n      swap1\n    tag_74:\n      dup2\n      sload\n      dup2\n      mstore\n      swap1\n      0x01\n      add\n      swap1\n      0x20\n      add\n      dup1\n      dup4\n      gt\n      tag_74\n      jumpi\n      dup3\n      swap1\n      sub\n      0x1f\n      and\n      dup3\n      add\n      swap2\n    tag_72:\n      pop\n      pop\n      pop\n      pop\n      pop\n      dup2\n      mstore\n      0x20\n      add\n      0x02\n      dup3\n      add\n      sload\n      dup2\n      mstore\n      0x20\n      add\n      0x03\n      dup3\n      add\n      dup1\n      sload\n      tag_75\n      swap1\n      tag_33\n      jump\t// in\n    tag_75:\n      dup1\n      0x1f\n      add\n      0x20\n      dup1\n      swap2\n      div\n      mul\n      0x20\n      add\n      mload(0x40)\n      swap1\n      dup2\n      add\n      0x40\n      mstore\n      dup1\n      swap3\n      swap2\n      swap1\n      dup2\n      dup2\n      mstore\n      0x20\n      add\n      dup3\n      dup1\n      sload\n      tag_76\n      swap1\n      tag_33\n      jump\t// in\n    tag_76:\n      dup1\n      iszero\n      tag_77\n      jumpi\n      dup1\n      0x1f\n      lt\n      tag_78\n      jumpi\n      0x0100\n      dup1\n      dup4\n      sload\n      div\n      mul\n      dup4\n      mstore\n      swap2\n      0x20\n      add\n      swap2\n      jump(tag_77)\n    tag_78:\n      dup3\n      add\n      swap2\n      swap1\n      0x00\n      mstore\n      keccak256(0x00, 0x20)\n      swap1\n    tag_79:\n      dup2\n      sload\n      dup2\n      mstore\n      swap1\n      0x01\n      add\n      swap1\n      0x20\n      add\n      dup1\n      dup4\n      gt\n      tag_79\n      jumpi\n      dup3\n      swap1\n      sub\n      0x1f\n      and\n      dup3\n      add\n      swap2\n    tag_77:\n      pop\n      pop\n      pop\n      pop\n      pop\n      dup2\n      mstore\n      0x20\n      add\n      0x04\n      dup3\n      add\n      dup1\n      sload\n      tag_80\n      swap1\n      tag_33\n      jump\t// in\n    tag_80:\n      dup1\n      0x1f\n      add\n      0x20\n      dup1\n      swap2\n      div\n      mul\n      0x20\n      add\n      mload(0x40)\n      swap1\n      dup2\n      add\n      0x40\n      mstore\n      dup1\n      swap3\n      swap2\n      swap1\n      dup2\n      dup2\n      mstore\n      0x20\n      add\n      dup3\n      dup1\n      sload\n      tag_81\n      swap1\n      tag_33\n      jump\t// in\n    tag_81:\n      dup1\n      iszero\n      tag_82\n      jumpi\n      dup1\n      0x1f\n      lt\n      tag_83\n      jumpi\n      0x0100\n      dup1\n      dup4\n      sload\n      div\n      mul\n      dup4\n      mstore\n      swap2\n      0x20\n      add\n      swap2\n      jump(tag_82)\n    tag_83:\n      dup3\n      add\n      swap2\n      swap1\n      0x00\n      mstore\n      keccak256(0x00, 0x20)\n      swap1\n    tag_84:\n      dup2\n      sload\n      dup2\n      mstore\n      swap1\n      0x01\n      add\n      swap1\n      0x20\n      add\n      dup1\n      dup4\n      gt\n      tag_84\n      jumpi\n      dup3\n      swap1\n      sub\n      0x1f\n      and\n      dup3\n      add\n      swap2\n    tag_82:\n      pop\n      pop\n      pop\n      pop\n      pop\n      dup2\n      mstore\n      pop\n      pop\n      swap1\n      pop\n        /* \"ControleBaterias.sol\":1356:1357  b */\n      dup1\n        /* \"ControleBaterias.sol\":1356:1362  b.tipo */\n      0x00\n      add\n      mload\n        /* \"ControleBaterias.sol\":1364:1365  b */\n      dup2\n        /* \"ControleBaterias.sol\":1364:1369  b.uso */\n      0x20\n      add\n      mload\n        /* \"ControleBaterias.sol\":1371:1372  b */\n      dup3\n        /* \"ControleBaterias.sol\":1371:1379  b.tensao */\n      0x40\n      add\n      mload\n        /* \"ControleBaterias.sol\":1381:1382  b */\n      dup4\n        /* \"ControleBaterias.sol\":1381:1391  b.dataProd */\n      0x60\n      add\n      mload\n        /* \"ControleBaterias.sol\":1393:1394  b */\n      dup5\n        /* \"ControleBaterias.sol\":1393:1399  b.lote */\n      0x80\n      add\n      mload\n        /* \"ControleBaterias.sol\":1348:1400  return (b.tipo, b.uso, b.tensao, b.dataProd, b.lote) */\n      swap6\n      pop\n      swap6\n      pop\n      swap6\n      pop\n      swap6\n      pop\n      swap6\n      pop\n      pop\n        /* \"ControleBaterias.sol\":1079:1408  function consultarBateria(uint256 index) public view returns (... */\n      swap2\n      swap4\n      swap6\n      swap1\n      swap3\n      swap5\n      pop\n      jump\t// out\n        /* \"ControleBaterias.sol\":1473:1569  function totalBaterias() public view returns (uint256) {... */\n    tag_27:\n        /* \"ControleBaterias.sol\":1519:1526  uint256 */\n      0x00\n        /* \"ControleBaterias.sol\":1546:1554  baterias */\n      0x01\n        /* \"ControleBaterias.sol\":1546:1561  baterias.length */\n      dup1\n      sload\n      swap1\n      pop\n        /* \"ControleBaterias.sol\":1539:1561  return baterias.length */\n      swap1\n      pop\n        /* \"ControleBaterias.sol\":1473:1569  function totalBaterias() public view returns (uint256) {... */\n      swap1\n      jump\t// out\n        /* \"#utility.yul\":7:133   */\n    tag_86:\n        /* \"#utility.yul\":44:51   */\n      0x00\n        /* \"#utility.yul\":84:126   */\n      0xffffffffffffffffffffffffffffffffffffffff\n        /* \"#utility.yul\":77:82   */\n      dup3\n        /* \"#utility.yul\":73:127   */\n      and\n        /* \"#utility.yul\":62:127   */\n      swap1\n      pop\n        /* \"#utility.yul\":7:133   */\n      swap2\n      swap1\n      pop\n      jump\t// out\n        /* \"#utility.yul\":139:235   */\n    tag_87:\n        /* \"#utility.yul\":176:183   */\n      0x00\n        /* \"#utility.yul\":205:229   */\n      tag_129\n        /* \"#utility.yul\":223:228   */\n      dup3\n        /* \"#utility.yul\":205:229   */\n      tag_86\n      jump\t// in\n    tag_129:\n        /* \"#utility.yul\":194:229   */\n      swap1\n      pop\n        /* \"#utility.yul\":139:235   */\n      swap2\n      swap1\n      pop\n      jump\t// out\n        /* \"#utility.yul\":241:359   */\n    tag_88:\n        /* \"#utility.yul\":328:352   */\n      tag_131\n        /* \"#utility.yul\":346:351   */\n      dup2\n        /* \"#utility.yul\":328:352   */\n      tag_87\n      jump\t// in\n    tag_131:\n        /* \"#utility.yul\":323:326   */\n      dup3\n        /* \"#utility.yul\":316:353   */\n      mstore\n        /* \"#utility.yul\":241:359   */\n      pop\n      pop\n      jump\t// out\n        /* \"#utility.yul\":365:587   */\n    tag_11:\n        /* \"#utility.yul\":458:462   */\n      0x00\n        /* \"#utility.yul\":496:498   */\n      0x20\n        /* \"#utility.yul\":485:494   */\n      dup3\n        /* \"#utility.yul\":481:499   */\n      add\n        /* \"#utility.yul\":473:499   */\n      swap1\n      pop\n        /* \"#utility.yul\":509:580   */\n      tag_133\n        /* \"#utility.yul\":577:578   */\n      0x00\n        /* \"#utility.yul\":566:575   */\n      dup4\n        /* \"#utility.yul\":562:579   */\n      add\n        /* \"#utility.yul\":553:559   */\n      dup5\n        /* \"#utility.yul\":509:580   */\n      tag_88\n      jump\t// in\n    tag_133:\n        /* \"#utility.yul\":365:587   */\n      swap3\n      swap2\n      pop\n      pop\n      jump\t// out\n        /* \"#utility.yul\":593:668   */\n    tag_89:\n        /* \"#utility.yul\":626:632   */\n      0x00\n        /* \"#utility.yul\":659:661   */\n      0x40\n        /* \"#utility.yul\":653:662   */\n      mload\n        /* \"#utility.yul\":643:662   */\n      swap1\n      pop\n        /* \"#utility.yul\":593:668   */\n      swap1\n      jump\t// out\n        /* \"#utility.yul\":674:791   */\n    tag_90:\n        /* \"#utility.yul\":783:784   */\n      0x00\n        /* \"#utility.yul\":780:781   */\n      dup1\n        /* \"#utility.yul\":773:785   */\n      revert\n        /* \"#utility.yul\":797:914   */\n    tag_91:\n        /* \"#utility.yul\":906:907   */\n      0x00\n        /* \"#utility.yul\":903:904   */\n      dup1\n        /* \"#utility.yul\":896:908   */\n      revert\n        /* \"#utility.yul\":920:997   */\n    tag_92:\n        /* \"#utility.yul\":957:964   */\n      0x00\n        /* \"#utility.yul\":986:991   */\n      dup2\n        /* \"#utility.yul\":975:991   */\n      swap1\n      pop\n        /* \"#utility.yul\":920:997   */\n      swap2\n      swap1\n      pop\n      jump\t// out\n        /* \"#utility.yul\":1003:1125   */\n    tag_93:\n        /* \"#utility.yul\":1076:1100   */\n      tag_139\n        /* \"#utility.yul\":1094:1099   */\n      dup2\n        /* \"#utility.yul\":1076:1100   */\n      tag_92\n      jump\t// in\n    tag_139:\n        /* \"#utility.yul\":1069:1074   */\n      dup2\n        /* \"#utility.yul\":1066:1101   */\n      eq\n        /* \"#utility.yul\":1056:1119   */\n      tag_140\n      jumpi\n        /* \"#utility.yul\":1115:1116   */\n      0x00\n        /* \"#utility.yul\":1112:1113   */\n      dup1\n        /* \"#utility.yul\":1105:1117   */\n      revert\n        /* \"#utility.yul\":1056:1119   */\n    tag_140:\n        /* \"#utility.yul\":1003:1125   */\n      pop\n      jump\t// out\n        /* \"#utility.yul\":1131:1270   */\n    tag_94:\n        /* \"#utility.yul\":1177:1182   */\n      0x00\n        /* \"#utility.yul\":1215:1221   */\n      dup2\n        /* \"#utility.yul\":1202:1222   */\n      calldataload\n        /* \"#utility.yul\":1193:1222   */\n      swap1\n      pop\n        /* \"#utility.yul\":1231:1264   */\n      tag_142\n        /* \"#utility.yul\":1258:1263   */\n      dup2\n        /* \"#utility.yul\":1231:1264   */\n      tag_93\n      jump\t// in\n    tag_142:\n        /* \"#utility.yul\":1131:1270   */\n      swap3\n      swap2\n      pop\n      pop\n      jump\t// out\n        /* \"#utility.yul\":1276:1605   */\n    tag_14:\n        /* \"#utility.yul\":1335:1341   */\n      0x00\n        /* \"#utility.yul\":1384:1386   */\n      0x20\n        /* \"#utility.yul\":1372:1381   */\n      dup3\n        /* \"#utility.yul\":1363:1370   */\n      dup5\n        /* \"#utility.yul\":1359:1382   */\n      sub\n        /* \"#utility.yul\":1355:1387   */\n      slt\n        /* \"#utility.yul\":1352:1471   */\n      iszero\n      tag_144\n      jumpi\n        /* \"#utility.yul\":1390:1469   */\n      tag_145\n      tag_90\n      jump\t// in\n    tag_145:\n        /* \"#utility.yul\":1352:1471   */\n    tag_144:\n        /* \"#utility.yul\":1510:1511   */\n      0x00\n        /* \"#utility.yul\":1535:1588   */\n      tag_146\n        /* \"#utility.yul\":1580:1587   */\n      dup5\n        /* \"#utility.yul\":1571:1577   */\n      dup3\n        /* \"#utility.yul\":1560:1569   */\n      dup6\n        /* \"#utility.yul\":1556:1578   */\n      add\n        /* \"#utility.yul\":1535:1588   */\n      tag_94\n      jump\t// in\n    tag_146:\n        /* \"#utility.yul\":1525:1588   */\n      swap2\n      pop\n        /* \"#utility.yul\":1481:1598   */\n      pop\n        /* \"#utility.yul\":1276:1605   */\n      swap3\n      swap2\n      pop\n      pop\n      jump\t// out\n        /* \"#utility.yul\":1611:1710   */\n    tag_95:\n        /* \"#utility.yul\":1663:1669   */\n      0x00\n        /* \"#utility.yul\":1697:1702   */\n      dup2\n        /* \"#utility.yul\":1691:1703   */\n      mload\n        /* \"#utility.yul\":1681:1703   */\n      swap1\n      pop\n        /* \"#utility.yul\":1611:1710   */\n      swap2\n      swap1\n      pop\n      jump\t// out\n        /* \"#utility.yul\":1716:1885   */\n    tag_96:\n        /* \"#utility.yul\":1800:1811   */\n      0x00\n        /* \"#utility.yul\":1834:1840   */\n      dup3\n        /* \"#utility.yul\":1829:1832   */\n      dup3\n        /* \"#utility.yul\":1822:1841   */\n      mstore\n        /* \"#utility.yul\":1874:1878   */\n      0x20\n        /* \"#utility.yul\":1869:1872   */\n      dup3\n        /* \"#utility.yul\":1865:1879   */\n      add\n        /* \"#utility.yul\":1850:1879   */\n      swap1\n      pop\n        /* \"#utility.yul\":1716:1885   */\n      swap3\n      swap2\n      pop\n      pop\n      jump\t// out\n        /* \"#utility.yul\":1891:2139   */\n    tag_97:\n        /* \"#utility.yul\":1973:1974   */\n      0x00\n        /* \"#utility.yul\":1983:2096   */\n    tag_150:\n        /* \"#utility.yul\":1997:2003   */\n      dup4\n        /* \"#utility.yul\":1994:1995   */\n      dup2\n        /* \"#utility.yul\":1991:2004   */\n      lt\n        /* \"#utility.yul\":1983:2096   */\n      iszero\n      tag_152\n      jumpi\n        /* \"#utility.yul\":2082:2083   */\n      dup1\n        /* \"#utility.yul\":2077:2080   */\n      dup3\n        /* \"#utility.yul\":2073:2084   */\n      add\n        /* \"#utility.yul\":2067:2085   */\n      mload\n        /* \"#utility.yul\":2063:2064   */\n      dup2\n        /* \"#utility.yul\":2058:2061   */\n      dup5\n        /* \"#utility.yul\":2054:2065   */\n      add\n        /* \"#utility.yul\":2047:2086   */\n      mstore\n        /* \"#utility.yul\":2019:2021   */\n      0x20\n        /* \"#utility.yul\":2016:2017   */\n      dup2\n        /* \"#utility.yul\":2012:2022   */\n      add\n        /* \"#utility.yul\":2007:2022   */\n      swap1\n      pop\n        /* \"#utility.yul\":1983:2096   */\n      jump(tag_150)\n    tag_152:\n        /* \"#utility.yul\":2130:2131   */\n      0x00\n        /* \"#utility.yul\":2121:2127   */\n      dup5\n        /* \"#utility.yul\":2116:2119   */\n      dup5\n        /* \"#utility.yul\":2112:2128   */\n      add\n        /* \"#utility.yul\":2105:2132   */\n      mstore\n        /* \"#utility.yul\":1953:2139   */\n      pop\n        /* \"#utility.yul\":1891:2139   */\n      pop\n      pop\n      pop\n      jump\t// out\n        /* \"#utility.yul\":2145:2247   */\n    tag_98:\n        /* \"#utility.yul\":2186:2192   */\n      0x00\n        /* \"#utility.yul\":2237:2239   */\n      0x1f\n        /* \"#utility.yul\":2233:2240   */\n      not\n        /* \"#utility.yul\":2228:2230   */\n      0x1f\n        /* \"#utility.yul\":2221:2226   */\n      dup4\n        /* \"#utility.yul\":2217:2231   */\n      add\n        /* \"#utility.yul\":2213:2241   */\n      and\n        /* \"#utility.yul\":2203:2241   */\n      swap1\n      pop\n        /* \"#utility.yul\":2145:2247   */\n      swap2\n      swap1\n      pop\n      jump\t// out\n        /* \"#utility.yul\":2253:2630   */\n    tag_99:\n        /* \"#utility.yul\":2341:2344   */\n      0x00\n        /* \"#utility.yul\":2369:2408   */\n      tag_155\n        /* \"#utility.yul\":2402:2407   */\n      dup3\n        /* \"#utility.yul\":2369:2408   */\n      tag_95\n      jump\t// in\n    tag_155:\n        /* \"#utility.yul\":2424:2495   */\n      tag_156\n        /* \"#utility.yul\":2488:2494   */\n      dup2\n        /* \"#utility.yul\":2483:2486   */\n      dup6\n        /* \"#utility.yul\":2424:2495   */\n      tag_96\n      jump\t// in\n    tag_156:\n        /* \"#utility.yul\":2417:2495   */\n      swap4\n      pop\n        /* \"#utility.yul\":2504:2569   */\n      tag_157\n        /* \"#utility.yul\":2562:2568   */\n      dup2\n        /* \"#utility.yul\":2557:2560   */\n      dup6\n        /* \"#utility.yul\":2550:2554   */\n      0x20\n        /* \"#utility.yul\":2543:2548   */\n      dup7\n        /* \"#utility.yul\":2539:2555   */\n      add\n        /* \"#utility.yul\":2504:2569   */\n      tag_97\n      jump\t// in\n    tag_157:\n        /* \"#utility.yul\":2594:2623   */\n      tag_158\n        /* \"#utility.yul\":2616:2622   */\n      dup2\n        /* \"#utility.yul\":2594:2623   */\n      tag_98\n      jump\t// in\n    tag_158:\n        /* \"#utility.yul\":2589:2592   */\n      dup5\n        /* \"#utility.yul\":2585:2624   */\n      add\n        /* \"#utility.yul\":2578:2624   */\n      swap2\n      pop\n        /* \"#utility.yul\":2345:2630   */\n      pop\n        /* \"#utility.yul\":2253:2630   */\n      swap3\n      swap2\n      pop\n      pop\n      jump\t// out\n        /* \"#utility.yul\":2636:2754   */\n    tag_100:\n        /* \"#utility.yul\":2723:2747   */\n      tag_160\n        /* \"#utility.yul\":2741:2746   */\n      dup2\n        /* \"#utility.yul\":2723:2747   */\n      tag_92\n      jump\t// in\n    tag_160:\n        /* \"#utility.yul\":2718:2721   */\n      dup3\n        /* \"#utility.yul\":2711:2748   */\n      mstore\n        /* \"#utility.yul\":2636:2754   */\n      pop\n      pop\n      jump\t// out\n        /* \"#utility.yul\":2760:3788   */\n    tag_17:\n        /* \"#utility.yul\":3045:3049   */\n      0x00\n        /* \"#utility.yul\":3083:3086   */\n      0xa0\n        /* \"#utility.yul\":3072:3081   */\n      dup3\n        /* \"#utility.yul\":3068:3087   */\n      add\n        /* \"#utility.yul\":3060:3087   */\n      swap1\n      pop\n        /* \"#utility.yul\":3133:3142   */\n      dup2\n        /* \"#utility.yul\":3127:3131   */\n      dup2\n        /* \"#utility.yul\":3123:3143   */\n      sub\n        /* \"#utility.yul\":3119:3120   */\n      0x00\n        /* \"#utility.yul\":3108:3117   */\n      dup4\n        /* \"#utility.yul\":3104:3121   */\n      add\n        /* \"#utility.yul\":3097:3144   */\n      mstore\n        /* \"#utility.yul\":3161:3239   */\n      tag_162\n        /* \"#utility.yul\":3234:3238   */\n      dup2\n        /* \"#utility.yul\":3225:3231   */\n      dup9\n        /* \"#utility.yul\":3161:3239   */\n      tag_99\n      jump\t// in\n    tag_162:\n        /* \"#utility.yul\":3153:3239   */\n      swap1\n      pop\n        /* \"#utility.yul\":3286:3295   */\n      dup2\n        /* \"#utility.yul\":3280:3284   */\n      dup2\n        /* \"#utility.yul\":3276:3296   */\n      sub\n        /* \"#utility.yul\":3271:3273   */\n      0x20\n        /* \"#utility.yul\":3260:3269   */\n      dup4\n        /* \"#utility.yul\":3256:3274   */\n      add\n        /* \"#utility.yul\":3249:3297   */\n      mstore\n        /* \"#utility.yul\":3314:3392   */\n      tag_163\n        /* \"#utility.yul\":3387:3391   */\n      dup2\n        /* \"#utility.yul\":3378:3384   */\n      dup8\n        /* \"#utility.yul\":3314:3392   */\n      tag_99\n      jump\t// in\n    tag_163:\n        /* \"#utility.yul\":3306:3392   */\n      swap1\n      pop\n        /* \"#utility.yul\":3402:3474   */\n      tag_164\n        /* \"#utility.yul\":3470:3472   */\n      0x40\n        /* \"#utility.yul\":3459:3468   */\n      dup4\n        /* \"#utility.yul\":3455:3473   */\n      add\n        /* \"#utility.yul\":3446:3452   */\n      dup7\n        /* \"#utility.yul\":3402:3474   */\n      tag_100\n      jump\t// in\n    tag_164:\n        /* \"#utility.yul\":3521:3530   */\n      dup2\n        /* \"#utility.yul\":3515:3519   */\n      dup2\n        /* \"#utility.yul\":3511:3531   */\n      sub\n        /* \"#utility.yul\":3506:3508   */\n      0x60\n        /* \"#utility.yul\":3495:3504   */\n      dup4\n        /* \"#utility.yul\":3491:3509   */\n      add\n        /* \"#utility.yul\":3484:3532   */\n      mstore\n        /* \"#utility.yul\":3549:3627   */\n      tag_165\n        /* \"#utility.yul\":3622:3626   */\n      dup2\n        /* \"#utility.yul\":3613:3619   */\n      dup6\n        /* \"#utility.yul\":3549:3627   */\n      tag_99\n      jump\t// in\n    tag_165:\n        /* \"#utility.yul\":3541:3627   */\n      swap1\n      pop\n        /* \"#utility.yul\":3675:3684   */\n      dup2\n        /* \"#utility.yul\":3669:3673   */\n      dup2\n        /* \"#utility.yul\":3665:3685   */\n      sub\n        /* \"#utility.yul\":3659:3662   */\n      0x80\n        /* \"#utility.yul\":3648:3657   */\n      dup4\n        /* \"#utility.yul\":3644:3663   */\n      add\n        /* \"#utility.yul\":3637:3686   */\n      mstore\n        /* \"#utility.yul\":3703:3781   */\n      tag_166\n        /* \"#utility.yul\":3776:3780   */\n      dup2\n        /* \"#utility.yul\":3767:3773   */\n      dup5\n        /* \"#utility.yul\":3703:3781   */\n      tag_99\n      jump\t// in\n    tag_166:\n        /* \"#utility.yul\":3695:3781   */\n      swap1\n      pop\n        /* \"#utility.yul\":2760:3788   */\n      swap7\n      swap6\n      pop\n      pop\n      pop\n      pop\n      pop\n      pop\n      jump\t// out\n        /* \"#utility.yul\":3794:3911   */\n    tag_101:\n        /* \"#utility.yul\":3903:3904   */\n      0x00\n        /* \"#utility.yul\":3900:3901   */\n      dup1\n        /* \"#utility.yul\":3893:3905   */\n      revert\n        /* \"#utility.yul\":3917:4034   */\n    tag_102:\n        /* \"#utility.yul\":4026:4027   */\n      0x00\n        /* \"#utility.yul\":4023:4024   */\n      dup1\n        /* \"#utility.yul\":4016:4028   */\n      revert\n        /* \"#utility.yul\":4040:4220   */\n    tag_103:\n        /* \"#utility.yul\":4088:4165   */\n      0x4e487b7100000000000000000000000000000000000000000000000000000000\n        /* \"#utility.yul\":4085:4086   */\n      0x00\n        /* \"#utility.yul\":4078:4166   */\n      mstore\n        /* \"#utility.yul\":4185:4189   */\n      0x41\n        /* \"#utility.yul\":4182:4183   */\n      0x04\n        /* \"#utility.yul\":4175:4190   */\n      mstore\n        /* \"#utility.yul\":4209:4213   */\n      0x24\n        /* \"#utility.yul\":4206:4207   */\n      0x00\n        /* \"#utility.yul\":4199:4214   */\n      revert\n        /* \"#utility.yul\":4226:4507   */\n    tag_104:\n        /* \"#utility.yul\":4309:4336   */\n      tag_171\n        /* \"#utility.yul\":4331:4335   */\n      dup3\n        /* \"#utility.yul\":4309:4336   */\n      tag_98\n      jump\t// in\n    tag_171:\n        /* \"#utility.yul\":4301:4307   */\n      dup2\n        /* \"#utility.yul\":4297:4337   */\n      add\n        /* \"#utility.yul\":4439:4445   */\n      dup2\n        /* \"#utility.yul\":4427:4437   */\n      dup2\n        /* \"#utility.yul\":4424:4446   */\n      lt\n        /* \"#utility.yul\":4403:4421   */\n      0xffffffffffffffff\n        /* \"#utility.yul\":4391:4401   */\n      dup3\n        /* \"#utility.yul\":4388:4422   */\n      gt\n        /* \"#utility.yul\":4385:4447   */\n      or\n        /* \"#utility.yul\":4382:4470   */\n      iszero\n      tag_172\n      jumpi\n        /* \"#utility.yul\":4450:4468   */\n      tag_173\n      tag_103\n      jump\t// in\n    tag_173:\n        /* \"#utility.yul\":4382:4470   */\n    tag_172:\n        /* \"#utility.yul\":4490:4500   */\n      dup1\n        /* \"#utility.yul\":4486:4488   */\n      0x40\n        /* \"#utility.yul\":4479:4501   */\n      mstore\n        /* \"#utility.yul\":4269:4507   */\n      pop\n        /* \"#utility.yul\":4226:4507   */\n      pop\n      pop\n      jump\t// out\n        /* \"#utility.yul\":4513:4642   */\n    tag_105:\n        /* \"#utility.yul\":4547:4553   */\n      0x00\n        /* \"#utility.yul\":4574:4594   */\n      tag_175\n      tag_89\n      jump\t// in\n    tag_175:\n        /* \"#utility.yul\":4564:4594   */\n      swap1\n      pop\n        /* \"#utility.yul\":4603:4636   */\n      tag_176\n        /* \"#utility.yul\":4631:4635   */\n      dup3\n        /* \"#utility.yul\":4623:4629   */\n      dup3\n        /* \"#utility.yul\":4603:4636   */\n      tag_104\n      jump\t// in\n    tag_176:\n        /* \"#utility.yul\":4513:4642   */\n      swap2\n      swap1\n      pop\n      jump\t// out\n        /* \"#utility.yul\":4648:4956   */\n    tag_106:\n        /* \"#utility.yul\":4710:4714   */\n      0x00\n        /* \"#utility.yul\":4800:4818   */\n      0xffffffffffffffff\n        /* \"#utility.yul\":4792:4798   */\n      dup3\n        /* \"#utility.yul\":4789:4819   */\n      gt\n        /* \"#utility.yul\":4786:4842   */\n      iszero\n      tag_178\n      jumpi\n        /* \"#utility.yul\":4822:4840   */\n      tag_179\n      tag_103\n      jump\t// in\n    tag_179:\n        /* \"#utility.yul\":4786:4842   */\n    tag_178:\n        /* \"#utility.yul\":4860:4889   */\n      tag_180\n        /* \"#utility.yul\":4882:4888   */\n      dup3\n        /* \"#utility.yul\":4860:4889   */\n      tag_98\n      jump\t// in\n    tag_180:\n        /* \"#utility.yul\":4852:4889   */\n      swap1\n      pop\n        /* \"#utility.yul\":4944:4948   */\n      0x20\n        /* \"#utility.yul\":4938:4942   */\n      dup2\n        /* \"#utility.yul\":4934:4949   */\n      add\n        /* \"#utility.yul\":4926:4949   */\n      swap1\n      pop\n        /* \"#utility.yul\":4648:4956   */\n      swap2\n      swap1\n      pop\n      jump\t// out\n        /* \"#utility.yul\":4962:5110   */\n    tag_107:\n        /* \"#utility.yul\":5060:5066   */\n      dup3\n        /* \"#utility.yul\":5055:5058   */\n      dup2\n        /* \"#utility.yul\":5050:5053   */\n      dup4\n        /* \"#utility.yul\":5037:5067   */\n      calldatacopy\n        /* \"#utility.yul\":5101:5102   */\n      0x00\n        /* \"#utility.yul\":5092:5098   */\n      dup4\n        /* \"#utility.yul\":5087:5090   */\n      dup4\n        /* \"#utility.yul\":5083:5099   */\n      add\n        /* \"#utility.yul\":5076:5103   */\n      mstore\n        /* \"#utility.yul\":4962:5110   */\n      pop\n      pop\n      pop\n      jump\t// out\n        /* \"#utility.yul\":5116:5541   */\n    tag_108:\n        /* \"#utility.yul\":5194:5199   */\n      0x00\n        /* \"#utility.yul\":5219:5285   */\n      tag_183\n        /* \"#utility.yul\":5235:5284   */\n      tag_184\n        /* \"#utility.yul\":5277:5283   */\n      dup5\n        /* \"#utility.yul\":5235:5284   */\n      tag_106\n      jump\t// in\n    tag_184:\n        /* \"#utility.yul\":5219:5285   */\n      tag_105\n      jump\t// in\n    tag_183:\n        /* \"#utility.yul\":5210:5285   */\n      swap1\n      pop\n        /* \"#utility.yul\":5308:5314   */\n      dup3\n        /* \"#utility.yul\":5301:5306   */\n      dup2\n        /* \"#utility.yul\":5294:5315   */\n      mstore\n        /* \"#utility.yul\":5346:5350   */\n      0x20\n        /* \"#utility.yul\":5339:5344   */\n      dup2\n        /* \"#utility.yul\":5335:5351   */\n      add\n        /* \"#utility.yul\":5384:5387   */\n      dup5\n        /* \"#utility.yul\":5375:5381   */\n      dup5\n        /* \"#utility.yul\":5370:5373   */\n      dup5\n        /* \"#utility.yul\":5366:5382   */\n      add\n        /* \"#utility.yul\":5363:5388   */\n      gt\n        /* \"#utility.yul\":5360:5472   */\n      iszero\n      tag_185\n      jumpi\n        /* \"#utility.yul\":5391:5470   */\n      tag_186\n      tag_102\n      jump\t// in\n    tag_186:\n        /* \"#utility.yul\":5360:5472   */\n    tag_185:\n        /* \"#utility.yul\":5481:5535   */\n      tag_187\n        /* \"#utility.yul\":5528:5534   */\n      dup5\n        /* \"#utility.yul\":5523:5526   */\n      dup3\n        /* \"#utility.yul\":5518:5521   */\n      dup6\n        /* \"#utility.yul\":5481:5535   */\n      tag_107\n      jump\t// in\n    tag_187:\n        /* \"#utility.yul\":5200:5541   */\n      pop\n        /* \"#utility.yul\":5116:5541   */\n      swap4\n      swap3\n      pop\n      pop\n      pop\n      jump\t// out\n        /* \"#utility.yul\":5561:5901   */\n    tag_109:\n        /* \"#utility.yul\":5617:5622   */\n      0x00\n        /* \"#utility.yul\":5666:5669   */\n      dup3\n        /* \"#utility.yul\":5659:5663   */\n      0x1f\n        /* \"#utility.yul\":5651:5657   */\n      dup4\n        /* \"#utility.yul\":5647:5664   */\n      add\n        /* \"#utility.yul\":5643:5670   */\n      slt\n        /* \"#utility.yul\":5633:5755   */\n      tag_189\n      jumpi\n        /* \"#utility.yul\":5674:5753   */\n      tag_190\n      tag_101\n      jump\t// in\n    tag_190:\n        /* \"#utility.yul\":5633:5755   */\n    tag_189:\n        /* \"#utility.yul\":5791:5797   */\n      dup2\n        /* \"#utility.yul\":5778:5798   */\n      calldataload\n        /* \"#utility.yul\":5816:5895   */\n      tag_191\n        /* \"#utility.yul\":5891:5894   */\n      dup5\n        /* \"#utility.yul\":5883:5889   */\n      dup3\n        /* \"#utility.yul\":5876:5880   */\n      0x20\n        /* \"#utility.yul\":5868:5874   */\n      dup7\n        /* \"#utility.yul\":5864:5881   */\n      add\n        /* \"#utility.yul\":5816:5895   */\n      tag_108\n      jump\t// in\n    tag_191:\n        /* \"#utility.yul\":5807:5895   */\n      swap2\n      pop\n        /* \"#utility.yul\":5623:5901   */\n      pop\n        /* \"#utility.yul\":5561:5901   */\n      swap3\n      swap2\n      pop\n      pop\n      jump\t// out\n        /* \"#utility.yul\":5907:7538   */\n    tag_20:\n        /* \"#utility.yul\":6042:6048   */\n      0x00\n        /* \"#utility.yul\":6050:6056   */\n      dup1\n        /* \"#utility.yul\":6058:6064   */\n      0x00\n        /* \"#utility.yul\":6066:6072   */\n      dup1\n        /* \"#utility.yul\":6074:6080   */\n      0x00\n        /* \"#utility.yul\":6123:6126   */\n      0xa0\n        /* \"#utility.yul\":6111:6120   */\n      dup7\n        /* \"#utility.yul\":6102:6109   */\n      dup9\n        /* \"#utility.yul\":6098:6121   */\n      sub\n        /* \"#utility.yul\":6094:6127   */\n      slt\n        /* \"#utility.yul\":6091:6211   */\n      iszero\n      tag_193\n      jumpi\n        /* \"#utility.yul\":6130:6209   */\n      tag_194\n      tag_90\n      jump\t// in\n    tag_194:\n        /* \"#utility.yul\":6091:6211   */\n    tag_193:\n        /* \"#utility.yul\":6278:6279   */\n      0x00\n        /* \"#utility.yul\":6267:6276   */\n      dup7\n        /* \"#utility.yul\":6263:6280   */\n      add\n        /* \"#utility.yul\":6250:6281   */\n      calldataload\n        /* \"#utility.yul\":6308:6326   */\n      0xffffffffffffffff\n        /* \"#utility.yul\":6300:6306   */\n      dup2\n        /* \"#utility.yul\":6297:6327   */\n      gt\n        /* \"#utility.yul\":6294:6411   */\n      iszero\n      tag_195\n      jumpi\n        /* \"#utility.yul\":6330:6409   */\n      tag_196\n      tag_91\n      jump\t// in\n    tag_196:\n        /* \"#utility.yul\":6294:6411   */\n    tag_195:\n        /* \"#utility.yul\":6435:6498   */\n      tag_197\n        /* \"#utility.yul\":6490:6497   */\n      dup9\n        /* \"#utility.yul\":6481:6487   */\n      dup3\n        /* \"#utility.yul\":6470:6479   */\n      dup10\n        /* \"#utility.yul\":6466:6488   */\n      add\n        /* \"#utility.yul\":6435:6498   */\n      tag_109\n      jump\t// in\n    tag_197:\n        /* \"#utility.yul\":6425:6498   */\n      swap6\n      pop\n        /* \"#utility.yul\":6221:6508   */\n      pop\n        /* \"#utility.yul\":6575:6577   */\n      0x20\n        /* \"#utility.yul\":6564:6573   */\n      dup7\n        /* \"#utility.yul\":6560:6578   */\n      add\n        /* \"#utility.yul\":6547:6579   */\n      calldataload\n        /* \"#utility.yul\":6606:6624   */\n      0xffffffffffffffff\n        /* \"#utility.yul\":6598:6604   */\n      dup2\n        /* \"#utility.yul\":6595:6625   */\n      gt\n        /* \"#utility.yul\":6592:6709   */\n      iszero\n      tag_198\n      jumpi\n        /* \"#utility.yul\":6628:6707   */\n      tag_199\n      tag_91\n      jump\t// in\n    tag_199:\n        /* \"#utility.yul\":6592:6709   */\n    tag_198:\n        /* \"#utility.yul\":6733:6796   */\n      tag_200\n        /* \"#utility.yul\":6788:6795   */\n      dup9\n        /* \"#utility.yul\":6779:6785   */\n      dup3\n        /* \"#utility.yul\":6768:6777   */\n      dup10\n        /* \"#utility.yul\":6764:6786   */\n      add\n        /* \"#utility.yul\":6733:6796   */\n      tag_109\n      jump\t// in\n    tag_200:\n        /* \"#utility.yul\":6723:6796   */\n      swap5\n      pop\n        /* \"#utility.yul\":6518:6806   */\n      pop\n        /* \"#utility.yul\":6845:6847   */\n      0x40\n        /* \"#utility.yul\":6871:6924   */\n      tag_201\n        /* \"#utility.yul\":6916:6923   */\n      dup9\n        /* \"#utility.yul\":6907:6913   */\n      dup3\n        /* \"#utility.yul\":6896:6905   */\n      dup10\n        /* \"#utility.yul\":6892:6914   */\n      add\n        /* \"#utility.yul\":6871:6924   */\n      tag_94\n      jump\t// in\n    tag_201:\n        /* \"#utility.yul\":6861:6924   */\n      swap4\n      pop\n        /* \"#utility.yul\":6816:6934   */\n      pop\n        /* \"#utility.yul\":7001:7003   */\n      0x60\n        /* \"#utility.yul\":6990:6999   */\n      dup7\n        /* \"#utility.yul\":6986:7004   */\n      add\n        /* \"#utility.yul\":6973:7005   */\n      calldataload\n        /* \"#utility.yul\":7032:7050   */\n      0xffffffffffffffff\n        /* \"#utility.yul\":7024:7030   */\n      dup2\n        /* \"#utility.yul\":7021:7051   */\n      gt\n        /* \"#utility.yul\":7018:7135   */\n      iszero\n      tag_202\n      jumpi\n        /* \"#utility.yul\":7054:7133   */\n      tag_203\n      tag_91\n      jump\t// in\n    tag_203:\n        /* \"#utility.yul\":7018:7135   */\n    tag_202:\n        /* \"#utility.yul\":7159:7222   */\n      tag_204\n        /* \"#utility.yul\":7214:7221   */\n      dup9\n        /* \"#utility.yul\":7205:7211   */\n      dup3\n        /* \"#utility.yul\":7194:7203   */\n      dup10\n        /* \"#utility.yul\":7190:7212   */\n      add\n        /* \"#utility.yul\":7159:7222   */\n      tag_109\n      jump\t// in\n    tag_204:\n        /* \"#utility.yul\":7149:7222   */\n      swap3\n      pop\n        /* \"#utility.yul\":6944:7232   */\n      pop\n        /* \"#utility.yul\":7299:7302   */\n      0x80\n        /* \"#utility.yul\":7288:7297   */\n      dup7\n        /* \"#utility.yul\":7284:7303   */\n      add\n        /* \"#utility.yul\":7271:7304   */\n      calldataload\n        /* \"#utility.yul\":7331:7349   */\n      0xffffffffffffffff\n        /* \"#utility.yul\":7323:7329   */\n      dup2\n        /* \"#utility.yul\":7320:7350   */\n      gt\n        /* \"#utility.yul\":7317:7434   */\n      iszero\n      tag_205\n      jumpi\n        /* \"#utility.yul\":7353:7432   */\n      tag_206\n      tag_91\n      jump\t// in\n    tag_206:\n        /* \"#utility.yul\":7317:7434   */\n    tag_205:\n        /* \"#utility.yul\":7458:7521   */\n      tag_207\n        /* \"#utility.yul\":7513:7520   */\n      dup9\n        /* \"#utility.yul\":7504:7510   */\n      dup3\n        /* \"#utility.yul\":7493:7502   */\n      dup10\n        /* \"#utility.yul\":7489:7511   */\n      add\n        /* \"#utility.yul\":7458:7521   */\n      tag_109\n      jump\t// in\n    tag_207:\n        /* \"#utility.yul\":7448:7521   */\n      swap2\n      pop\n        /* \"#utility.yul\":7242:7531   */\n      pop\n        /* \"#utility.yul\":5907:7538   */\n      swap3\n      swap6\n      pop\n      swap3\n      swap6\n      swap1\n      swap4\n      pop\n      jump\t// out\n        /* \"#utility.yul\":7544:7766   */\n    tag_29:\n        /* \"#utility.yul\":7637:7641   */\n      0x00\n        /* \"#utility.yul\":7675:7677   */\n      0x20\n        /* \"#utility.yul\":7664:7673   */\n      dup3\n        /* \"#utility.yul\":7660:7678   */\n      add\n        /* \"#utility.yul\":7652:7678   */\n      swap1\n      pop\n        /* \"#utility.yul\":7688:7759   */\n      tag_209\n        /* \"#utility.yul\":7756:7757   */\n      0x00\n        /* \"#utility.yul\":7745:7754   */\n      dup4\n        /* \"#utility.yul\":7741:7758   */\n      add\n        /* \"#utility.yul\":7732:7738   */\n      dup5\n        /* \"#utility.yul\":7688:7759   */\n      tag_100\n      jump\t// in\n    tag_209:\n        /* \"#utility.yul\":7544:7766   */\n      swap3\n      swap2\n      pop\n      pop\n      jump\t// out\n        /* \"#utility.yul\":7772:7952   */\n    tag_110:\n        /* \"#utility.yul\":7820:7897   */\n      0x4e487b7100000000000000000000000000000000000000000000000000000000\n        /* \"#utility.yul\":7817:7818   */\n      0x00\n        /* \"#utility.yul\":7810:7898   */\n      mstore\n        /* \"#utility.yul\":7917:7921   */\n      0x22\n        /* \"#utility.yul\":7914:7915   */\n      0x04\n        /* \"#utility.yul\":7907:7922   */\n      mstore\n        /* \"#utility.yul\":7941:7945   */\n      0x24\n        /* \"#utility.yul\":7938:7939   */\n      0x00\n        /* \"#utility.yul\":7931:7946   */\n      revert\n        /* \"#utility.yul\":7958:8278   */\n    tag_33:\n        /* \"#utility.yul\":8002:8008   */\n      0x00\n        /* \"#utility.yul\":8039:8040   */\n      0x02\n        /* \"#utility.yul\":8033:8037   */\n      dup3\n        /* \"#utility.yul\":8029:8041   */\n      div\n        /* \"#utility.yul\":8019:8041   */\n      swap1\n      pop\n        /* \"#utility.yul\":8086:8087   */\n      0x01\n        /* \"#utility.yul\":8080:8084   */\n      dup3\n        /* \"#utility.yul\":8076:8088   */\n      and\n        /* \"#utility.yul\":8107:8125   */\n      dup1\n        /* \"#utility.yul\":8097:8178   */\n      tag_212\n      jumpi\n        /* \"#utility.yul\":8163:8167   */\n      0x7f\n        /* \"#utility.yul\":8155:8161   */\n      dup3\n        /* \"#utility.yul\":8151:8168   */\n      and\n        /* \"#utility.yul\":8141:8168   */\n      swap2\n      pop\n        /* \"#utility.yul\":8097:8178   */\n    tag_212:\n        /* \"#utility.yul\":8225:8227   */\n      0x20\n        /* \"#utility.yul\":8217:8223   */\n      dup3\n        /* \"#utility.yul\":8214:8228   */\n      lt\n        /* \"#utility.yul\":8194:8212   */\n      dup2\n        /* \"#utility.yul\":8191:8229   */\n      sub\n        /* \"#utility.yul\":8188:8272   */\n      tag_213\n      jumpi\n        /* \"#utility.yul\":8244:8262   */\n      tag_214\n      tag_110\n      jump\t// in\n    tag_214:\n        /* \"#utility.yul\":8188:8272   */\n    tag_213:\n        /* \"#utility.yul\":8009:8278   */\n      pop\n        /* \"#utility.yul\":7958:8278   */\n      swap2\n      swap1\n      pop\n      jump\t// out\n        /* \"#utility.yul\":8284:8425   */\n    tag_111:\n        /* \"#utility.yul\":8333:8337   */\n      0x00\n        /* \"#utility.yul\":8356:8359   */\n      dup2\n        /* \"#utility.yul\":8348:8359   */\n      swap1\n      pop\n        /* \"#utility.yul\":8379:8382   */\n      dup2\n        /* \"#utility.yul\":8376:8377   */\n      0x00\n        /* \"#utility.yul\":8369:8383   */\n      mstore\n        /* \"#utility.yul\":8413:8417   */\n      0x20\n        /* \"#utility.yul\":8410:8411   */\n      0x00\n        /* \"#utility.yul\":8400:8418   */\n      keccak256\n        /* \"#utility.yul\":8392:8418   */\n      swap1\n      pop\n        /* \"#utility.yul\":8284:8425   */\n      swap2\n      swap1\n      pop\n      jump\t// out\n        /* \"#utility.yul\":8431:8524   */\n    tag_112:\n        /* \"#utility.yul\":8468:8474   */\n      0x00\n        /* \"#utility.yul\":8515:8517   */\n      0x20\n        /* \"#utility.yul\":8510:8512   */\n      0x1f\n        /* \"#utility.yul\":8503:8508   */\n      dup4\n        /* \"#utility.yul\":8499:8513   */\n      add\n        /* \"#utility.yul\":8495:8518   */\n      div\n        /* \"#utility.yul\":8485:8518   */\n      swap1\n      pop\n        /* \"#utility.yul\":8431:8524   */\n      swap2\n      swap1\n      pop\n      jump\t// out\n        /* \"#utility.yul\":8530:8637   */\n    tag_113:\n        /* \"#utility.yul\":8574:8582   */\n      0x00\n        /* \"#utility.yul\":8624:8629   */\n      dup3\n        /* \"#utility.yul\":8618:8622   */\n      dup3\n        /* \"#utility.yul\":8614:8630   */\n      shl\n        /* \"#utility.yul\":8593:8630   */\n      swap1\n      pop\n        /* \"#utility.yul\":8530:8637   */\n      swap3\n      swap2\n      pop\n      pop\n      jump\t// out\n        /* \"#utility.yul\":8643:9036   */\n    tag_114:\n        /* \"#utility.yul\":8712:8718   */\n      0x00\n        /* \"#utility.yul\":8762:8763   */\n      0x08\n        /* \"#utility.yul\":8750:8760   */\n      dup4\n        /* \"#utility.yul\":8746:8764   */\n      mul\n        /* \"#utility.yul\":8785:8882   */\n      tag_219\n        /* \"#utility.yul\":8815:8881   */\n      0xffffffffffffffffffffffffffffffffffffffffffffffffffffffffffffffff\n        /* \"#utility.yul\":8804:8813   */\n      dup3\n        /* \"#utility.yul\":8785:8882   */\n      tag_113\n      jump\t// in\n    tag_219:\n        /* \"#utility.yul\":8903:8942   */\n      tag_220\n        /* \"#utility.yul\":8933:8941   */\n      dup7\n        /* \"#utility.yul\":8922:8931   */\n      dup4\n        /* \"#utility.yul\":8903:8942   */\n      tag_113\n      jump\t// in\n    tag_220:\n        /* \"#utility.yul\":8891:8942   */\n      swap6\n      pop\n        /* \"#utility.yul\":8975:8979   */\n      dup1\n        /* \"#utility.yul\":8971:8980   */\n      not\n        /* \"#utility.yul\":8964:8969   */\n      dup5\n        /* \"#utility.yul\":8960:8981   */\n      and\n        /* \"#utility.yul\":8951:8981   */\n      swap4\n      pop\n        /* \"#utility.yul\":9024:9028   */\n      dup1\n        /* \"#utility.yul\":9014:9022   */\n      dup7\n        /* \"#utility.yul\":9010:9029   */\n      and\n        /* \"#utility.yul\":9003:9008   */\n      dup5\n        /* \"#utility.yul\":9000:9030   */\n      or\n        /* \"#utility.yul\":8990:9030   */\n      swap3\n      pop\n        /* \"#utility.yul\":8719:9036   */\n      pop\n      pop\n        /* \"#utility.yul\":8643:9036   */\n      swap4\n      swap3\n      pop\n      pop\n      pop\n      jump\t// out\n        /* \"#utility.yul\":9042:9102   */\n    tag_115:\n        /* \"#utility.yul\":9070:9073   */\n      0x00\n        /* \"#utility.yul\":9091:9096   */\n      dup2\n        /* \"#utility.yul\":9084:9096   */\n      swap1\n      pop\n        /* \"#utility.yul\":9042:9102   */\n      swap2\n      swap1\n      pop\n      jump\t// out\n        /* \"#utility.yul\":9108:9250   */\n    tag_116:\n        /* \"#utility.yul\":9158:9167   */\n      0x00\n        /* \"#utility.yul\":9191:9244   */\n      tag_223\n        /* \"#utility.yul\":9209:9243   */\n      tag_224\n        /* \"#utility.yul\":9218:9242   */\n      tag_225\n        /* \"#utility.yul\":9236:9241   */\n      dup5\n        /* \"#utility.yul\":9218:9242   */\n      tag_92\n      jump\t// in\n    tag_225:\n        /* \"#utility.yul\":9209:9243   */\n      tag_115\n      jump\t// in\n    tag_224:\n        /* \"#utility.yul\":9191:9244   */\n      tag_92\n      jump\t// in\n    tag_223:\n        /* \"#utility.yul\":9178:9244   */\n      swap1\n      pop\n        /* \"#utility.yul\":9108:9250   */\n      swap2\n      swap1\n      pop\n      jump\t// out\n        /* \"#utility.yul\":9256:9331   */\n    tag_117:\n        /* \"#utility.yul\":9299:9302   */\n      0x00\n        /* \"#utility.yul\":9320:9325   */\n      dup2\n        /* \"#utility.yul\":9313:9325   */\n      swap1\n      pop\n        /* \"#utility.yul\":9256:9331   */\n      swap2\n      swap1\n      pop\n      jump\t// out\n        /* \"#utility.yul\":9337:9606   */\n    tag_118:\n        /* \"#utility.yul\":9447:9486   */\n      tag_228\n        /* \"#utility.yul\":9478:9485   */\n      dup4\n        /* \"#utility.yul\":9447:9486   */\n      tag_116\n      jump\t// in\n    tag_228:\n        /* \"#utility.yul\":9508:9599   */\n      tag_229\n        /* \"#utility.yul\":9557:9598   */\n      tag_230\n        /* \"#utility.yul\":9581:9597   */\n      dup3\n        /* \"#utility.yul\":9557:9598   */\n      tag_117\n      jump\t// in\n    tag_230:\n        /* \"#utility.yul\":9549:9555   */\n      dup5\n        /* \"#utility.yul\":9542:9546   */\n      dup5\n        /* \"#utility.yul\":9536:9547   */\n      sload\n        /* \"#utility.yul\":9508:9599   */\n      tag_114\n      jump\t// in\n    tag_229:\n        /* \"#utility.yul\":9502:9506   */\n      dup3\n        /* \"#utility.yul\":9495:9600   */\n      sstore\n        /* \"#utility.yul\":9413:9606   */\n      pop\n        /* \"#utility.yul\":9337:9606   */\n      pop\n      pop\n      pop\n      jump\t// out\n        /* \"#utility.yul\":9612:9685   */\n    tag_119:\n        /* \"#utility.yul\":9657:9660   */\n      0x00\n        /* \"#utility.yul\":9612:9685   */\n      swap1\n      jump\t// out\n        /* \"#utility.yul\":9691:9880   */\n    tag_120:\n        /* \"#utility.yul\":9768:9800   */\n      tag_233\n      tag_119\n      jump\t// in\n    tag_233:\n        /* \"#utility.yul\":9809:9874   */\n      tag_234\n        /* \"#utility.yul\":9867:9873   */\n      dup2\n        /* \"#utility.yul\":9859:9865   */\n      dup5\n        /* \"#utility.yul\":9853:9857   */\n      dup5\n        /* \"#utility.yul\":9809:9874   */\n      tag_118\n      jump\t// in\n    tag_234:\n        /* \"#utility.yul\":9744:9880   */\n      pop\n        /* \"#utility.yul\":9691:9880   */\n      pop\n      pop\n      jump\t// out\n        /* \"#utility.yul\":9886:10072   */\n    tag_121:\n        /* \"#utility.yul\":9946:10066   */\n    tag_236:\n        /* \"#utility.yul\":9963:9966   */\n      dup2\n        /* \"#utility.yul\":9956:9961   */\n      dup2\n        /* \"#utility.yul\":9953:9967   */\n      lt\n        /* \"#utility.yul\":9946:10066   */\n      iszero\n      tag_238\n      jumpi\n        /* \"#utility.yul\":10017:10056   */\n      tag_239\n        /* \"#utility.yul\":10054:10055   */\n      0x00\n        /* \"#utility.yul\":10047:10052   */\n      dup3\n        /* \"#utility.yul\":10017:10056   */\n      tag_120\n      jump\t// in\n    tag_239:\n        /* \"#utility.yul\":9990:9991   */\n      0x01\n        /* \"#utility.yul\":9983:9988   */\n      dup2\n        /* \"#utility.yul\":9979:9992   */\n      add\n        /* \"#utility.yul\":9970:9992   */\n      swap1\n      pop\n        /* \"#utility.yul\":9946:10066   */\n      jump(tag_236)\n    tag_238:\n        /* \"#utility.yul\":9886:10072   */\n      pop\n      pop\n      jump\t// out\n        /* \"#utility.yul\":10078:10621   */\n    tag_122:\n        /* \"#utility.yul\":10179:10181   */\n      0x1f\n        /* \"#utility.yul\":10174:10177   */\n      dup3\n        /* \"#utility.yul\":10171:10182   */\n      gt\n        /* \"#utility.yul\":10168:10614   */\n      iszero\n      tag_241\n      jumpi\n        /* \"#utility.yul\":10213:10251   */\n      tag_242\n        /* \"#utility.yul\":10245:10250   */\n      dup2\n        /* \"#utility.yul\":10213:10251   */\n      tag_111\n      jump\t// in\n    tag_242:\n        /* \"#utility.yul\":10297:10326   */\n      tag_243\n        /* \"#utility.yul\":10315:10325   */\n      dup5\n        /* \"#utility.yul\":10297:10326   */\n      tag_112\n      jump\t// in\n    tag_243:\n        /* \"#utility.yul\":10287:10295   */\n      dup2\n        /* \"#utility.yul\":10283:10327   */\n      add\n        /* \"#utility.yul\":10480:10482   */\n      0x20\n        /* \"#utility.yul\":10468:10478   */\n      dup6\n        /* \"#utility.yul\":10465:10483   */\n      lt\n        /* \"#utility.yul\":10462:10511   */\n      iszero\n      tag_244\n      jumpi\n        /* \"#utility.yul\":10501:10509   */\n      dup2\n        /* \"#utility.yul\":10486:10509   */\n      swap1\n      pop\n        /* \"#utility.yul\":10462:10511   */\n    tag_244:\n        /* \"#utility.yul\":10524:10604   */\n      tag_245\n        /* \"#utility.yul\":10580:10602   */\n      tag_246\n        /* \"#utility.yul\":10598:10601   */\n      dup6\n        /* \"#utility.yul\":10580:10602   */\n      tag_112\n      jump\t// in\n    tag_246:\n        /* \"#utility.yul\":10570:10578   */\n      dup4\n        /* \"#utility.yul\":10566:10603   */\n      add\n        /* \"#utility.yul\":10553:10564   */\n      dup3\n        /* \"#utility.yul\":10524:10604   */\n      tag_121\n      jump\t// in\n    tag_245:\n        /* \"#utility.yul\":10183:10614   */\n      pop\n      pop\n        /* \"#utility.yul\":10168:10614   */\n    tag_241:\n        /* \"#utility.yul\":10078:10621   */\n      pop\n      pop\n      pop\n      jump\t// out\n        /* \"#utility.yul\":10627:10744   */\n    tag_123:\n        /* \"#utility.yul\":10681:10689   */\n      0x00\n        /* \"#utility.yul\":10731:10736   */\n      dup3\n        /* \"#utility.yul\":10725:10729   */\n      dup3\n        /* \"#utility.yul\":10721:10737   */\n      shr\n        /* \"#utility.yul\":10700:10737   */\n      swap1\n      pop\n        /* \"#utility.yul\":10627:10744   */\n      swap3\n      swap2\n      pop\n      pop\n      jump\t// out\n        /* \"#utility.yul\":10750:10919   */\n    tag_124:\n        /* \"#utility.yul\":10794:10800   */\n      0x00\n        /* \"#utility.yul\":10827:10878   */\n      tag_249\n        /* \"#utility.yul\":10875:10876   */\n      0x00\n        /* \"#utility.yul\":10871:10877   */\n      not\n        /* \"#utility.yul\":10863:10868   */\n      dup5\n        /* \"#utility.yul\":10860:10861   */\n      0x08\n        /* \"#utility.yul\":10856:10869   */\n      mul\n        /* \"#utility.yul\":10827:10878   */\n      tag_123\n      jump\t// in\n    tag_249:\n        /* \"#utility.yul\":10823:10879   */\n      not\n        /* \"#utility.yul\":10908:10912   */\n      dup1\n        /* \"#utility.yul\":10902:10906   */\n      dup4\n        /* \"#utility.yul\":10898:10913   */\n      and\n        /* \"#utility.yul\":10888:10913   */\n      swap2\n      pop\n        /* \"#utility.yul\":10801:10919   */\n      pop\n        /* \"#utility.yul\":10750:10919   */\n      swap3\n      swap2\n      pop\n      pop\n      jump\t// out\n        /* \"#utility.yul\":10924:11219   */\n    tag_125:\n        /* \"#utility.yul\":11000:11004   */\n      0x00\n        /* \"#utility.yul\":11146:11175   */\n      tag_251\n        /* \"#utility.yul\":11171:11174   */\n      dup4\n        /* \"#utility.yul\":11165:11169   */\n      dup4\n        /* \"#utility.yul\":11146:11175   */\n      tag_124\n      jump\t// in\n    tag_251:\n        /* \"#utility.yul\":11138:11175   */\n      swap2\n      pop\n        /* \"#utility.yul\":11208:11211   */\n      dup3\n        /* \"#utility.yul\":11205:11206   */\n      0x02\n        /* \"#utility.yul\":11201:11212   */\n      mul\n        /* \"#utility.yul\":11195:11199   */\n      dup3\n        /* \"#utility.yul\":11192:11213   */\n      or\n        /* \"#utility.yul\":11184:11213   */\n      swap1\n      pop\n        /* \"#utility.yul\":10924:11219   */\n      swap3\n      swap2\n      pop\n      pop\n      jump\t// out\n        /* \"#utility.yul\":11224:12619   */\n    tag_56:\n        /* \"#utility.yul\":11341:11378   */\n      tag_253\n        /* \"#utility.yul\":11374:11377   */\n      dup3\n        /* \"#utility.yul\":11341:11378   */\n      tag_95\n      jump\t// in\n    tag_253:\n        /* \"#utility.yul\":11443:11461   */\n      0xffffffffffffffff\n        /* \"#utility.yul\":11435:11441   */\n      dup2\n        /* \"#utility.yul\":11432:11462   */\n      gt\n        /* \"#utility.yul\":11429:11485   */\n      iszero\n      tag_254\n      jumpi\n        /* \"#utility.yul\":11465:11483   */\n      tag_255\n      tag_103\n      jump\t// in\n    tag_255:\n        /* \"#utility.yul\":11429:11485   */\n    tag_254:\n        /* \"#utility.yul\":11509:11547   */\n      tag_256\n        /* \"#utility.yul\":11541:11545   */\n      dup3\n        /* \"#utility.yul\":11535:11546   */\n      sload\n        /* \"#utility.yul\":11509:11547   */\n      tag_33\n      jump\t// in\n    tag_256:\n        /* \"#utility.yul\":11594:11661   */\n      tag_257\n        /* \"#utility.yul\":11654:11660   */\n      dup3\n        /* \"#utility.yul\":11646:11652   */\n      dup3\n        /* \"#utility.yul\":11640:11644   */\n      dup6\n        /* \"#utility.yul\":11594:11661   */\n      tag_122\n      jump\t// in\n    tag_257:\n        /* \"#utility.yul\":11688:11689   */\n      0x00\n        /* \"#utility.yul\":11712:11716   */\n      0x20\n        /* \"#utility.yul\":11699:11716   */\n      swap1\n      pop\n        /* \"#utility.yul\":11744:11746   */\n      0x1f\n        /* \"#utility.yul\":11736:11742   */\n      dup4\n        /* \"#utility.yul\":11733:11747   */\n      gt\n        /* \"#utility.yul\":11761:11762   */\n      0x01\n        /* \"#utility.yul\":11756:12374   */\n      dup2\n      eq\n      tag_259\n      jumpi\n        /* \"#utility.yul\":12418:12419   */\n      0x00\n        /* \"#utility.yul\":12435:12441   */\n      dup5\n        /* \"#utility.yul\":12432:12509   */\n      iszero\n      tag_260\n      jumpi\n        /* \"#utility.yul\":12484:12493   */\n      dup3\n        /* \"#utility.yul\":12479:12482   */\n      dup8\n        /* \"#utility.yul\":12475:12494   */\n      add\n        /* \"#utility.yul\":12469:12495   */\n      mload\n        /* \"#utility.yul\":12460:12495   */\n      swap1\n      pop\n        /* \"#utility.yul\":12432:12509   */\n    tag_260:\n        /* \"#utility.yul\":12535:12602   */\n      tag_261\n        /* \"#utility.yul\":12595:12601   */\n      dup6\n        /* \"#utility.yul\":12588:12593   */\n      dup3\n        /* \"#utility.yul\":12535:12602   */\n      tag_125\n      jump\t// in\n    tag_261:\n        /* \"#utility.yul\":12529:12533   */\n      dup7\n        /* \"#utility.yul\":12522:12603   */\n      sstore\n        /* \"#utility.yul\":12391:12613   */\n      pop\n        /* \"#utility.yul\":11726:12613   */\n      jump(tag_258)\n        /* \"#utility.yul\":11756:12374   */\n    tag_259:\n        /* \"#utility.yul\":11808:11812   */\n      0x1f\n        /* \"#utility.yul\":11804:11813   */\n      not\n        /* \"#utility.yul\":11796:11802   */\n      dup5\n        /* \"#utility.yul\":11792:11814   */\n      and\n        /* \"#utility.yul\":11842:11879   */\n      tag_262\n        /* \"#utility.yul\":11874:11878   */\n      dup7\n        /* \"#utility.yul\":11842:11879   */\n      tag_111\n      jump\t// in\n    tag_262:\n        /* \"#utility.yul\":11901:11902   */\n      0x00\n        /* \"#utility.yul\":11915:12123   */\n    tag_263:\n        /* \"#utility.yul\":11929:11936   */\n      dup3\n        /* \"#utility.yul\":11926:11927   */\n      dup2\n        /* \"#utility.yul\":11923:11937   */\n      lt\n        /* \"#utility.yul\":11915:12123   */\n      iszero\n      tag_265\n      jumpi\n        /* \"#utility.yul\":12008:12017   */\n      dup5\n        /* \"#utility.yul\":12003:12006   */\n      dup10\n        /* \"#utility.yul\":11999:12018   */\n      add\n        /* \"#utility.yul\":11993:12019   */\n      mload\n        /* \"#utility.yul\":11985:11991   */\n      dup3\n        /* \"#utility.yul\":11978:12020   */\n      sstore\n        /* \"#utility.yul\":12059:12060   */\n      0x01\n        /* \"#utility.yul\":12051:12057   */\n      dup3\n        /* \"#utility.yul\":12047:12061   */\n      add\n        /* \"#utility.yul\":12037:12061   */\n      swap2\n      pop\n        /* \"#utility.yul\":12106:12108   */\n      0x20\n        /* \"#utility.yul\":12095:12104   */\n      dup6\n        /* \"#utility.yul\":12091:12109   */\n      add\n        /* \"#utility.yul\":12078:12109   */\n      swap5\n      pop\n        /* \"#utility.yul\":11952:11956   */\n      0x20\n        /* \"#utility.yul\":11949:11950   */\n      dup2\n        /* \"#utility.yul\":11945:11957   */\n      add\n        /* \"#utility.yul\":11940:11957   */\n      swap1\n      pop\n        /* \"#utility.yul\":11915:12123   */\n      jump(tag_263)\n    tag_265:\n        /* \"#utility.yul\":12151:12157   */\n      dup7\n        /* \"#utility.yul\":12142:12149   */\n      dup4\n        /* \"#utility.yul\":12139:12158   */\n      lt\n        /* \"#utility.yul\":12136:12315   */\n      iszero\n      tag_266\n      jumpi\n        /* \"#utility.yul\":12209:12218   */\n      dup5\n        /* \"#utility.yul\":12204:12207   */\n      dup10\n        /* \"#utility.yul\":12200:12219   */\n      add\n        /* \"#utility.yul\":12194:12220   */\n      mload\n        /* \"#utility.yul\":12252:12300   */\n      tag_267\n        /* \"#utility.yul\":12294:12298   */\n      0x1f\n        /* \"#utility.yul\":12286:12292   */\n      dup10\n        /* \"#utility.yul\":12282:12299   */\n      and\n        /* \"#utility.yul\":12271:12280   */\n      dup3\n        /* \"#utility.yul\":12252:12300   */\n      tag_124\n      jump\t// in\n    tag_267:\n        /* \"#utility.yul\":12244:12250   */\n      dup4\n        /* \"#utility.yul\":12237:12301   */\n      sstore\n        /* \"#utility.yul\":12159:12315   */\n      pop\n        /* \"#utility.yul\":12136:12315   */\n    tag_266:\n        /* \"#utility.yul\":12361:12362   */\n      0x01\n        /* \"#utility.yul\":12357:12358   */\n      0x02\n        /* \"#utility.yul\":12349:12355   */\n      dup9\n        /* \"#utility.yul\":12345:12359   */\n      mul\n        /* \"#utility.yul\":12341:12363   */\n      add\n        /* \"#utility.yul\":12335:12339   */\n      dup9\n        /* \"#utility.yul\":12328:12364   */\n      sstore\n        /* \"#utility.yul\":11763:12374   */\n      pop\n      pop\n      pop\n        /* \"#utility.yul\":11726:12613   */\n    tag_258:\n      pop\n        /* \"#utility.yul\":11316:12619   */\n      pop\n      pop\n      pop\n        /* \"#utility.yul\":11224:12619   */\n      pop\n      pop\n      jump\t// out\n        /* \"#utility.yul\":12625:12805   */\n    tag_63:\n        /* \"#utility.yul\":12673:12750   */\n      0x4e487b7100000000000000000000000000000000000000000000000000000000\n        /* \"#utility.yul\":12670:12671   */\n      0x00\n        /* \"#utility.yul\":12663:12751   */\n      mstore\n        /* \"#utility.yul\":12770:12774   */\n      0x32\n        /* \"#utility.yul\":12767:12768   */\n      0x04\n        /* \"#utility.yul\":12760:12775   */\n      mstore\n        /* \"#utility.yul\":12794:12798   */\n      0x24\n        /* \"#utility.yul\":12791:12792   */\n      0x00\n        /* \"#utility.yul\":12784:12799   */\n      revert\n\n    auxdata: 0xa2646970667358221220c52342d63c198bbc7dfd7a6690afa086275c39b8007d93eb5748d4bc94bb514a64736f6c634300081e0033\n}\n",
				"bytecode": {
					"linkReferences": {},
					"object": "6080604052348015600f57600080fd5b50336000806101000a81548173ffffffffffffffffffffffffffffffffffffffff021916908373ffffffffffffffffffffffffffffffffffffffff160217905550610e878061005f6000396000f3fe608060405234801561001057600080fd5b50600436106100575760003560e01c806370514bea1461005c5780637da30b731461007a57806399ce4f3e146100ae578063bd8261fe146100ca578063ce6bf005146100fe575b600080fd5b61006461011c565b6040516100719190610769565b60405180910390f35b610094600480360381019061008f91906107ce565b610140565b6040516100a595949392919061089a565b60405180910390f35b6100c860048036038101906100c39190610a3e565b6103a6565b005b6100e460048036038101906100df91906107ce565b610463565b6040516100f595949392919061089a565b60405180910390f35b61010661071b565b6040516101139190610b29565b60405180910390f35b60008054906101000a900473ffffffffffffffffffffffffffffffffffffffff1681565b6001818154811061015057600080fd5b906000526020600020906005020160009150905080600001805461017390610b73565b80601f016020809104026020016040519081016040528092919081815260200182805461019f90610b73565b80156101ec5780601f106101c1576101008083540402835291602001916101ec565b820191906000526020600020905b8154815290600101906020018083116101cf57829003601f168201915b50505050509080600101805461020190610b73565b80601f016020809104026020016040519081016040528092919081815260200182805461022d90610b73565b801561027a5780601f1061024f5761010080835404028352916020019161027a565b820191906000526020600020905b81548152906001019060200180831161025d57829003601f168201915b50505050509080600201549080600301805461029590610b73565b80601f01602080910402602001604051908101604052809291908181526020018280546102c190610b73565b801561030e5780601f106102e35761010080835404028352916020019161030e565b820191906000526020600020905b8154815290600101906020018083116102f157829003601f168201915b50505050509080600401805461032390610b73565b80601f016020809104026020016040519081016040528092919081815260200182805461034f90610b73565b801561039c5780601f106103715761010080835404028352916020019161039c565b820191906000526020600020905b81548152906001019060200180831161037f57829003601f168201915b5050505050905085565b60016040518060a00160405280878152602001868152602001858152602001848152602001838152509080600181540180825580915050600190039060005260206000209060050201600090919091909150600082015181600001908161040d9190610d50565b5060208201518160010190816104239190610d50565b506040820151816002015560608201518160030190816104439190610d50565b5060808201518160040190816104599190610d50565b5050505050505050565b606080600060608060006001878154811061048157610480610e22565b5b90600052602060002090600502016040518060a00160405290816000820180546104aa90610b73565b80601f01602080910402602001604051908101604052809291908181526020018280546104d690610b73565b80156105235780601f106104f857610100808354040283529160200191610523565b820191906000526020600020905b81548152906001019060200180831161050657829003601f168201915b5050505050815260200160018201805461053c90610b73565b80601f016020809104026020016040519081016040528092919081815260200182805461056890610b73565b80156105b55780601f1061058a576101008083540402835291602001916105b5565b820191906000526020600020905b81548152906001019060200180831161059857829003601f168201915b50505050508152602001600282015481526020016003820180546105d890610b73565b80601f016020809104026020016040519081016040528092919081815260200182805461060490610b73565b80156106515780601f1061062657610100808354040283529160200191610651565b820191906000526020600020905b81548152906001019060200180831161063457829003601f168201915b5050505050815260200160048201805461066a90610b73565b80601f016020809104026020016040519081016040528092919081815260200182805461069690610b73565b80156106e35780601f106106b8576101008083540402835291602001916106e3565b820191906000526020600020905b8154815290600101906020018083116106c657829003601f168201915b505050505081525050905080600001518160200151826040015183606001518460800151955095509550955095505091939590929450565b6000600180549050905090565b600073ffffffffffffffffffffffffffffffffffffffff82169050919050565b600061075382610728565b9050919050565b61076381610748565b82525050565b600060208201905061077e600083018461075a565b92915050565b6000604051905090565b600080fd5b600080fd5b6000819050919050565b6107ab81610798565b81146107b657600080fd5b50565b6000813590506107c8816107a2565b92915050565b6000602082840312156107e4576107e361078e565b5b60006107f2848285016107b9565b91505092915050565b600081519050919050565b600082825260208201905092915050565b60005b8381101561083557808201518184015260208101905061081a565b60008484015250505050565b6000601f19601f8301169050919050565b600061085d826107fb565b6108678185610806565b9350610877818560208601610817565b61088081610841565b840191505092915050565b61089481610798565b82525050565b600060a08201905081810360008301526108b48188610852565b905081810360208301526108c88187610852565b90506108d7604083018661088b565b81810360608301526108e98185610852565b905081810360808301526108fd8184610852565b90509695505050505050565b600080fd5b600080fd5b7f4e487b7100000000000000000000000000000000000000000000000000000000600052604160045260246000fd5b61094b82610841565b810181811067ffffffffffffffff8211171561096a57610969610913565b5b80604052505050565b600061097d610784565b90506109898282610942565b919050565b600067ffffffffffffffff8211156109a9576109a8610913565b5b6109b282610841565b9050602081019050919050565b82818337600083830152505050565b60006109e16109dc8461098e565b610973565b9050828152602081018484840111156109fd576109fc61090e565b5b610a088482856109bf565b509392505050565b600082601f830112610a2557610a24610909565b5b8135610a358482602086016109ce565b91505092915050565b600080600080600060a08688031215610a5a57610a5961078e565b5b600086013567ffffffffffffffff811115610a7857610a77610793565b5b610a8488828901610a10565b955050602086013567ffffffffffffffff811115610aa557610aa4610793565b5b610ab188828901610a10565b9450506040610ac2888289016107b9565b935050606086013567ffffffffffffffff811115610ae357610ae2610793565b5b610aef88828901610a10565b925050608086013567ffffffffffffffff811115610b1057610b0f610793565b5b610b1c88828901610a10565b9150509295509295909350565b6000602082019050610b3e600083018461088b565b92915050565b7f4e487b7100000000000000000000000000000000000000000000000000000000600052602260045260246000fd5b60006002820490506001821680610b8b57607f821691505b602082108103610b9e57610b9d610b44565b5b50919050565b60008190508160005260206000209050919050565b60006020601f8301049050919050565b600082821b905092915050565b600060088302610c067fffffffffffffffffffffffffffffffffffffffffffffffffffffffffffffffff82610bc9565b610c108683610bc9565b95508019841693508086168417925050509392505050565b6000819050919050565b6000610c4d610c48610c4384610798565b610c28565b610798565b9050919050565b6000819050919050565b610c6783610c32565b610c7b610c7382610c54565b848454610bd6565b825550505050565b600090565b610c90610c83565b610c9b818484610c5e565b505050565b5b81811015610cbf57610cb4600082610c88565b600181019050610ca1565b5050565b601f821115610d0457610cd581610ba4565b610cde84610bb9565b81016020851015610ced578190505b610d01610cf985610bb9565b830182610ca0565b50505b505050565b600082821c905092915050565b6000610d2760001984600802610d09565b1980831691505092915050565b6000610d408383610d16565b9150826002028217905092915050565b610d59826107fb565b67ffffffffffffffff811115610d7257610d71610913565b5b610d7c8254610b73565b610d87828285610cc3565b600060209050601f831160018114610dba5760008415610da8578287015190505b610db28582610d34565b865550610e1a565b601f198416610dc886610ba4565b60005b82811015610df057848901518255600182019150602085019450602081019050610dcb565b86831015610e0d5784890151610e09601f891682610d16565b8355505b6001600288020188555050505b505050505050565b7f4e487b7100000000000000000000000000000000000000000000000000000000600052603260045260246000fdfea2646970667358221220c52342d63c198bbc7dfd7a6690afa086275c39b8007d93eb5748d4bc94bb514a64736f6c634300081e0033",
					"opcodes": "PUSH1 0x80 PUSH1 0x40 MSTORE CALLVALUE DUP1 ISZERO PUSH1 0xF JUMPI PUSH1 0x0 DUP1 REVERT JUMPDEST POP CALLER PUSH1 0x0 DUP1 PUSH2 0x100 EXP DUP2 SLOAD DUP2 PUSH20 0xFFFFFFFFFFFFFFFFFFFFFFFFFFFFFFFFFFFFFFFF MUL NOT AND SWAP1 DUP4 PUSH20 0xFFFFFFFFFFFFFFFFFFFFFFFFFFFFFFFFFFFFFFFF AND MUL OR SWAP1 SSTORE POP PUSH2 0xE87 DUP1 PUSH2 0x5F PUSH1 0x0 CODECOPY PUSH1 0x0 RETURN INVALID PUSH1 0x80 PUSH1 0x40 MSTORE CALLVALUE DUP1 ISZERO PUSH2 0x10 JUMPI PUSH1 0x0 DUP1 REVERT JUMPDEST POP PUSH1 0x4 CALLDATASIZE LT PUSH2 0x57 JUMPI PUSH1 0x0 CALLDATALOAD PUSH1 0xE0 SHR DUP1 PUSH4 0x70514BEA EQ PUSH2 0x5C JUMPI DUP1 PUSH4 0x7DA30B73 EQ PUSH2 0x7A JUMPI DUP1 PUSH4 0x99CE4F3E EQ PUSH2 0xAE JUMPI DUP1 PUSH4 0xBD8261FE EQ PUSH2 0xCA JUMPI DUP1 PUSH4 0xCE6BF005 EQ PUSH2 0xFE JUMPI JUMPDEST PUSH1 0x0 DUP1 REVERT JUMPDEST PUSH2 0x64 PUSH2 0x11C JUMP JUMPDEST PUSH1 0x40 MLOAD PUSH2 0x71 SWAP2 SWAP1 PUSH2 0x769 JUMP JUMPDEST PUSH1 0x40 MLOAD DUP1 SWAP2 SUB SWAP1 RETURN JUMPDEST PUSH2 0x94 PUSH1 0x4 DUP1 CALLDATASIZE SUB DUP2 ADD SWAP1 PUSH2 0x8F SWAP2 SWAP1 PUSH2 0x7CE JUMP JUMPDEST PUSH2 0x140 JUMP JUMPDEST PUSH1 0x40 MLOAD PUSH2 0xA5 SWAP6 SWAP5 SWAP4 SWAP3 SWAP2 SWAP1 PUSH2 0x89A JUMP JUMPDEST PUSH1 0x40 MLOAD DUP1 SWAP2 SUB SWAP1 RETURN JUMPDEST PUSH2 0xC8 PUSH1 0x4 DUP1 CALLDATASIZE SUB DUP2 ADD SWAP1 PUSH2 0xC3 SWAP2 SWAP1 PUSH2 0xA3E JUMP JUMPDEST PUSH2 0x3A6 JUMP JUMPDEST STOP JUMPDEST PUSH2 0xE4 PUSH1 0x4 DUP1 CALLDATASIZE SUB DUP2 ADD SWAP1 PUSH2 0xDF SWAP2 SWAP1 PUSH2 0x7CE JUMP JUMPDEST PUSH2 0x463 JUMP JUMPDEST PUSH1 0x40 MLOAD PUSH2 0xF5 SWAP6 SWAP5 SWAP4 SWAP3 SWAP2 SWAP1 PUSH2 0x89A JUMP JUMPDEST PUSH1 0x40 MLOAD DUP1 SWAP2 SUB SWAP1 RETURN JUMPDEST PUSH2 0x106 PUSH2 0x71B JUMP JUMPDEST PUSH1 0x40 MLOAD PUSH2 0x113 SWAP2 SWAP1 PUSH2 0xB29 JUMP JUMPDEST PUSH1 0x40 MLOAD DUP1 SWAP2 SUB SWAP1 RETURN JUMPDEST PUSH1 0x0 DUP1 SLOAD SWAP1 PUSH2 0x100 EXP SWAP1 DIV PUSH20 0xFFFFFFFFFFFFFFFFFFFFFFFFFFFFFFFFFFFFFFFF AND DUP2 JUMP JUMPDEST PUSH1 0x1 DUP2 DUP2 SLOAD DUP2 LT PUSH2 0x150 JUMPI PUSH1 0x0 DUP1 REVERT JUMPDEST SWAP1 PUSH1 0x0 MSTORE PUSH1 0x20 PUSH1 0x0 KECCAK256 SWAP1 PUSH1 0x5 MUL ADD PUSH1 0x0 SWAP2 POP SWAP1 POP DUP1 PUSH1 0x0 ADD DUP1 SLOAD PUSH2 0x173 SWAP1 PUSH2 0xB73 JUMP JUMPDEST DUP1 PUSH1 0x1F ADD PUSH1 0x20 DUP1 SWAP2 DIV MUL PUSH1 0x20 ADD PUSH1 0x40 MLOAD SWAP1 DUP2 ADD PUSH1 0x40 MSTORE DUP1 SWAP3 SWAP2 SWAP1 DUP2 DUP2 MSTORE PUSH1 0x20 ADD DUP3 DUP1 SLOAD PUSH2 0x19F SWAP1 PUSH2 0xB73 JUMP JUMPDEST DUP1 ISZERO PUSH2 0x1EC JUMPI DUP1 PUSH1 0x1F LT PUSH2 0x1C1 JUMPI PUSH2 0x100 DUP1 DUP4 SLOAD DIV MUL DUP4 MSTORE SWAP2 PUSH1 0x20 ADD SWAP2 PUSH2 0x1EC JUMP JUMPDEST DUP3 ADD SWAP2 SWAP1 PUSH1 0x0 MSTORE PUSH1 0x20 PUSH1 0x0 KECCAK256 SWAP1 JUMPDEST DUP2 SLOAD DUP2 MSTORE SWAP1 PUSH1 0x1 ADD SWAP1 PUSH1 0x20 ADD DUP1 DUP4 GT PUSH2 0x1CF JUMPI DUP3 SWAP1 SUB PUSH1 0x1F AND DUP3 ADD SWAP2 JUMPDEST POP POP POP POP POP SWAP1 DUP1 PUSH1 0x1 ADD DUP1 SLOAD PUSH2 0x201 SWAP1 PUSH2 0xB73 JUMP JUMPDEST DUP1 PUSH1 0x1F ADD PUSH1 0x20 DUP1 SWAP2 DIV MUL PUSH1 0x20 ADD PUSH1 0x40 MLOAD SWAP1 DUP2 ADD PUSH1 0x40 MSTORE DUP1 SWAP3 SWAP2 SWAP1 DUP2 DUP2 MSTORE PUSH1 0x20 ADD DUP3 DUP1 SLOAD PUSH2 0x22D SWAP1 PUSH2 0xB73 JUMP JUMPDEST DUP1 ISZERO PUSH2 0x27A JUMPI DUP1 PUSH1 0x1F LT PUSH2 0x24F JUMPI PUSH2 0x100 DUP1 DUP4 SLOAD DIV MUL DUP4 MSTORE SWAP2 PUSH1 0x20 ADD SWAP2 PUSH2 0x27A JUMP JUMPDEST DUP3 ADD SWAP2 SWAP1 PUSH1 0x0 MSTORE PUSH1 0x20 PUSH1 0x0 KECCAK256 SWAP1 JUMPDEST DUP2 SLOAD DUP2 MSTORE SWAP1 PUSH1 0x1 ADD SWAP1 PUSH1 0x20 ADD DUP1 DUP4 GT PUSH2 0x25D JUMPI DUP3 SWAP1 SUB PUSH1 0x1F AND DUP3 ADD SWAP2 JUMPDEST POP POP POP POP POP SWAP1 DUP1 PUSH1 0x2 ADD SLOAD SWAP1 DUP1 PUSH1 0x3 ADD DUP1 SLOAD PUSH2 0x295 SWAP1 PUSH2 0xB73 JUMP JUMPDEST DUP1 PUSH1 0x1F ADD PUSH1 0x20 DUP1 SWAP2 DIV MUL PUSH1 0x20 ADD PUSH1 0x40 MLOAD SWAP1 DUP2 ADD PUSH1 0x40 MSTORE DUP1 SWAP3 SWAP2 SWAP1 DUP2 DUP2 MSTORE PUSH1 0x20 ADD DUP3 DUP1 SLOAD PUSH2 0x2C1 SWAP1 PUSH2 0xB73 JUMP JUMPDEST DUP1 ISZERO PUSH2 0x30E JUMPI DUP1 PUSH1 0x1F LT PUSH2 0x2E3 JUMPI PUSH2 0x100 DUP1 DUP4 SLOAD DIV MUL DUP4 MSTORE SWAP2 PUSH1 0x20 ADD SWAP2 PUSH2 0x30E JUMP JUMPDEST DUP3 ADD SWAP2 SWAP1 PUSH1 0x0 MSTORE PUSH1 0x20 PUSH1 0x0 KECCAK256 SWAP1 JUMPDEST DUP2 SLOAD DUP2 MSTORE SWAP1 PUSH1 0x1 ADD SWAP1 PUSH1 0x20 ADD DUP1 DUP4 GT PUSH2 0x2F1 JUMPI DUP3 SWAP1 SUB PUSH1 0x1F AND DUP3 ADD SWAP2 JUMPDEST POP POP POP POP POP SWAP1 DUP1 PUSH1 0x4 ADD DUP1 SLOAD PUSH2 0x323 SWAP1 PUSH2 0xB73 JUMP JUMPDEST DUP1 PUSH1 0x1F ADD PUSH1 0x20 DUP1 SWAP2 DIV MUL PUSH1 0x20 ADD PUSH1 0x40 MLOAD SWAP1 DUP2 ADD PUSH1 0x40 MSTORE DUP1 SWAP3 SWAP2 SWAP1 DUP2 DUP2 MSTORE PUSH1 0x20 ADD DUP3 DUP1 SLOAD PUSH2 0x34F SWAP1 PUSH2 0xB73 JUMP JUMPDEST DUP1 ISZERO PUSH2 0x39C JUMPI DUP1 PUSH1 0x1F LT PUSH2 0x371 JUMPI PUSH2 0x100 DUP1 DUP4 SLOAD DIV MUL DUP4 MSTORE SWAP2 PUSH1 0x20 ADD SWAP2 PUSH2 0x39C JUMP JUMPDEST DUP3 ADD SWAP2 SWAP1 PUSH1 0x0 MSTORE PUSH1 0x20 PUSH1 0x0 KECCAK256 SWAP1 JUMPDEST DUP2 SLOAD DUP2 MSTORE SWAP1 PUSH1 0x1 ADD SWAP1 PUSH1 0x20 ADD DUP1 DUP4 GT PUSH2 0x37F JUMPI DUP3 SWAP1 SUB PUSH1 0x1F AND DUP3 ADD SWAP2 JUMPDEST POP POP POP POP POP SWAP1 POP DUP6 JUMP JUMPDEST PUSH1 0x1 PUSH1 0x40 MLOAD DUP1 PUSH1 0xA0 ADD PUSH1 0x40 MSTORE DUP1 DUP8 DUP2 MSTORE PUSH1 0x20 ADD DUP7 DUP2 MSTORE PUSH1 0x20 ADD DUP6 DUP2 MSTORE PUSH1 0x20 ADD DUP5 DUP2 MSTORE PUSH1 0x20 ADD DUP4 DUP2 MSTORE POP SWAP1 DUP1 PUSH1 0x1 DUP2 SLOAD ADD DUP1 DUP3 SSTORE DUP1 SWAP2 POP POP PUSH1 0x1 SWAP1 SUB SWAP1 PUSH1 0x0 MSTORE PUSH1 0x20 PUSH1 0x0 KECCAK256 SWAP1 PUSH1 0x5 MUL ADD PUSH1 0x0 SWAP1 SWAP2 SWAP1 SWAP2 SWAP1 SWAP2 POP PUSH1 0x0 DUP3 ADD MLOAD DUP2 PUSH1 0x0 ADD SWAP1 DUP2 PUSH2 0x40D SWAP2 SWAP1 PUSH2 0xD50 JUMP JUMPDEST POP PUSH1 0x20 DUP3 ADD MLOAD DUP2 PUSH1 0x1 ADD SWAP1 DUP2 PUSH2 0x423 SWAP2 SWAP1 PUSH2 0xD50 JUMP JUMPDEST POP PUSH1 0x40 DUP3 ADD MLOAD DUP2 PUSH1 0x2 ADD SSTORE PUSH1 0x60 DUP3 ADD MLOAD DUP2 PUSH1 0x3 ADD SWAP1 DUP2 PUSH2 0x443 SWAP2 SWAP1 PUSH2 0xD50 JUMP JUMPDEST POP PUSH1 0x80 DUP3 ADD MLOAD DUP2 PUSH1 0x4 ADD SWAP1 DUP2 PUSH2 0x459 SWAP2 SWAP1 PUSH2 0xD50 JUMP JUMPDEST POP POP POP POP POP POP POP POP JUMP JUMPDEST PUSH1 0x60 DUP1 PUSH1 0x0 PUSH1 0x60 DUP1 PUSH1 0x0 PUSH1 0x1 DUP8 DUP2 SLOAD DUP2 LT PUSH2 0x481 JUMPI PUSH2 0x480 PUSH2 0xE22 JUMP JUMPDEST JUMPDEST SWAP1 PUSH1 0x0 MSTORE PUSH1 0x20 PUSH1 0x0 KECCAK256 SWAP1 PUSH1 0x5 MUL ADD PUSH1 0x40 MLOAD DUP1 PUSH1 0xA0 ADD PUSH1 0x40 MSTORE SWAP1 DUP2 PUSH1 0x0 DUP3 ADD DUP1 SLOAD PUSH2 0x4AA SWAP1 PUSH2 0xB73 JUMP JUMPDEST DUP1 PUSH1 0x1F ADD PUSH1 0x20 DUP1 SWAP2 DIV MUL PUSH1 0x20 ADD PUSH1 0x40 MLOAD SWAP1 DUP2 ADD PUSH1 0x40 MSTORE DUP1 SWAP3 SWAP2 SWAP1 DUP2 DUP2 MSTORE PUSH1 0x20 ADD DUP3 DUP1 SLOAD PUSH2 0x4D6 SWAP1 PUSH2 0xB73 JUMP JUMPDEST DUP1 ISZERO PUSH2 0x523 JUMPI DUP1 PUSH1 0x1F LT PUSH2 0x4F8 JUMPI PUSH2 0x100 DUP1 DUP4 SLOAD DIV MUL DUP4 MSTORE SWAP2 PUSH1 0x20 ADD SWAP2 PUSH2 0x523 JUMP JUMPDEST DUP3 ADD SWAP2 SWAP1 PUSH1 0x0 MSTORE PUSH1 0x20 PUSH1 0x0 KECCAK256 SWAP1 JUMPDEST DUP2 SLOAD DUP2 MSTORE SWAP1 PUSH1 0x1 ADD SWAP1 PUSH1 0x20 ADD DUP1 DUP4 GT PUSH2 0x506 JUMPI DUP3 SWAP1 SUB PUSH1 0x1F AND DUP3 ADD SWAP2 JUMPDEST POP POP POP POP POP DUP2 MSTORE PUSH1 0x20 ADD PUSH1 0x1 DUP3 ADD DUP1 SLOAD PUSH2 0x53C SWAP1 PUSH2 0xB73 JUMP JUMPDEST DUP1 PUSH1 0x1F ADD PUSH1 0x20 DUP1 SWAP2 DIV MUL PUSH1 0x20 ADD PUSH1 0x40 MLOAD SWAP1 DUP2 ADD PUSH1 0x40 MSTORE DUP1 SWAP3 SWAP2 SWAP1 DUP2 DUP2 MSTORE PUSH1 0x20 ADD DUP3 DUP1 SLOAD PUSH2 0x568 SWAP1 PUSH2 0xB73 JUMP JUMPDEST DUP1 ISZERO PUSH2 0x5B5 JUMPI DUP1 PUSH1 0x1F LT PUSH2 0x58A JUMPI PUSH2 0x100 DUP1 DUP4 SLOAD DIV MUL DUP4 MSTORE SWAP2 PUSH1 0x20 ADD SWAP2 PUSH2 0x5B5 JUMP JUMPDEST DUP3 ADD SWAP2 SWAP1 PUSH1 0x0 MSTORE PUSH1 0x20 PUSH1 0x0 KECCAK256 SWAP1 JUMPDEST DUP2 SLOAD DUP2 MSTORE SWAP1 PUSH1 0x1 ADD SWAP1 PUSH1 0x20 ADD DUP1 DUP4 GT PUSH2 0x598 JUMPI DUP3 SWAP1 SUB PUSH1 0x1F AND DUP3 ADD SWAP2 JUMPDEST POP POP POP POP POP DUP2 MSTORE PUSH1 0x20 ADD PUSH1 0x2 DUP3 ADD SLOAD DUP2 MSTORE PUSH1 0x20 ADD PUSH1 0x3 DUP3 ADD DUP1 SLOAD PUSH2 0x5D8 SWAP1 PUSH2 0xB73 JUMP JUMPDEST DUP1 PUSH1 0x1F ADD PUSH1 0x20 DUP1 SWAP2 DIV MUL PUSH1 0x20 ADD PUSH1 0x40 MLOAD SWAP1 DUP2 ADD PUSH1 0x40 MSTORE DUP1 SWAP3 SWAP2 SWAP1 DUP2 DUP2 MSTORE PUSH1 0x20 ADD DUP3 DUP1 SLOAD PUSH2 0x604 SWAP1 PUSH2 0xB73 JUMP JUMPDEST DUP1 ISZERO PUSH2 0x651 JUMPI DUP1 PUSH1 0x1F LT PUSH2 0x626 JUMPI PUSH2 0x100 DUP1 DUP4 SLOAD DIV MUL DUP4 MSTORE SWAP2 PUSH1 0x20 ADD SWAP2 PUSH2 0x651 JUMP JUMPDEST DUP3 ADD SWAP2 SWAP1 PUSH1 0x0 MSTORE PUSH1 0x20 PUSH1 0x0 KECCAK256 SWAP1 JUMPDEST DUP2 SLOAD DUP2 MSTORE SWAP1 PUSH1 0x1 ADD SWAP1 PUSH1 0x20 ADD DUP1 DUP4 GT PUSH2 0x634 JUMPI DUP3 SWAP1 SUB PUSH1 0x1F AND DUP3 ADD SWAP2 JUMPDEST POP POP POP POP POP DUP2 MSTORE PUSH1 0x20 ADD PUSH1 0x4 DUP3 ADD DUP1 SLOAD PUSH2 0x66A SWAP1 PUSH2 0xB73 JUMP JUMPDEST DUP1 PUSH1 0x1F ADD PUSH1 0x20 DUP1 SWAP2 DIV MUL PUSH1 0x20 ADD PUSH1 0x40 MLOAD SWAP1 DUP2 ADD PUSH1 0x40 MSTORE DUP1 SWAP3 SWAP2 SWAP1 DUP2 DUP2 MSTORE PUSH1 0x20 ADD DUP3 DUP1 SLOAD PUSH2 0x696 SWAP1 PUSH2 0xB73 JUMP JUMPDEST DUP1 ISZERO PUSH2 0x6E3 JUMPI DUP1 PUSH1 0x1F LT PUSH2 0x6B8 JUMPI PUSH2 0x100 DUP1 DUP4 SLOAD DIV MUL DUP4 MSTORE SWAP2 PUSH1 0x20 ADD SWAP2 PUSH2 0x6E3 JUMP JUMPDEST DUP3 ADD SWAP2 SWAP1 PUSH1 0x0 MSTORE PUSH1 0x20 PUSH1 0x0 KECCAK256 SWAP1 JUMPDEST DUP2 SLOAD DUP2 MSTORE SWAP1 PUSH1 0x1 ADD SWAP1 PUSH1 0x20 ADD DUP1 DUP4 GT PUSH2 0x6C6 JUMPI DUP3 SWAP1 SUB PUSH1 0x1F AND DUP3 ADD SWAP2 JUMPDEST POP POP POP POP POP DUP2 MSTORE POP POP SWAP1 POP DUP1 PUSH1 0x0 ADD MLOAD DUP2 PUSH1 0x20 ADD MLOAD DUP3 PUSH1 0x40 ADD MLOAD DUP4 PUSH1 0x60 ADD MLOAD DUP5 PUSH1 0x80 ADD MLOAD SWAP6 POP SWAP6 POP SWAP6 POP SWAP6 POP SWAP6 POP POP SWAP2 SWAP4 SWAP6 SWAP1 SWAP3 SWAP5 POP JUMP JUMPDEST PUSH1 0x0 PUSH1 0x1 DUP1 SLOAD SWAP1 POP SWAP1 POP SWAP1 JUMP JUMPDEST PUSH1 0x0 PUSH20 0xFFFFFFFFFFFFFFFFFFFFFFFFFFFFFFFFFFFFFFFF DUP3 AND SWAP1 POP SWAP2 SWAP1 POP JUMP JUMPDEST PUSH1 0x0 PUSH2 0x753 DUP3 PUSH2 0x728 JUMP JUMPDEST SWAP1 POP SWAP2 SWAP1 POP JUMP JUMPDEST PUSH2 0x763 DUP2 PUSH2 0x748 JUMP JUMPDEST DUP3 MSTORE POP POP JUMP JUMPDEST PUSH1 0x0 PUSH1 0x20 DUP3 ADD SWAP1 POP PUSH2 0x77E PUSH1 0x0 DUP4 ADD DUP5 PUSH2 0x75A JUMP JUMPDEST SWAP3 SWAP2 POP POP JUMP JUMPDEST PUSH1 0x0 PUSH1 0x40 MLOAD SWAP1 POP SWAP1 JUMP JUMPDEST PUSH1 0x0 DUP1 REVERT JUMPDEST PUSH1 0x0 DUP1 REVERT JUMPDEST PUSH1 0x0 DUP2 SWAP1 POP SWAP2 SWAP1 POP JUMP JUMPDEST PUSH2 0x7AB DUP2 PUSH2 0x798 JUMP JUMPDEST DUP2 EQ PUSH2 0x7B6 JUMPI PUSH1 0x0 DUP1 REVERT JUMPDEST POP JUMP JUMPDEST PUSH1 0x0 DUP2 CALLDATALOAD SWAP1 POP PUSH2 0x7C8 DUP2 PUSH2 0x7A2 JUMP JUMPDEST SWAP3 SWAP2 POP POP JUMP JUMPDEST PUSH1 0x0 PUSH1 0x20 DUP3 DUP5 SUB SLT ISZERO PUSH2 0x7E4 JUMPI PUSH2 0x7E3 PUSH2 0x78E JUMP JUMPDEST JUMPDEST PUSH1 0x0 PUSH2 0x7F2 DUP5 DUP3 DUP6 ADD PUSH2 0x7B9 JUMP JUMPDEST SWAP2 POP POP SWAP3 SWAP2 POP POP JUMP JUMPDEST PUSH1 0x0 DUP2 MLOAD SWAP1 POP SWAP2 SWAP1 POP JUMP JUMPDEST PUSH1 0x0 DUP3 DUP3 MSTORE PUSH1 0x20 DUP3 ADD SWAP1 POP SWAP3 SWAP2 POP POP JUMP JUMPDEST PUSH1 0x0 JUMPDEST DUP4 DUP2 LT ISZERO PUSH2 0x835 JUMPI DUP1 DUP3 ADD MLOAD DUP2 DUP5 ADD MSTORE PUSH1 0x20 DUP2 ADD SWAP1 POP PUSH2 0x81A JUMP JUMPDEST PUSH1 0x0 DUP5 DUP5 ADD MSTORE POP POP POP POP JUMP JUMPDEST PUSH1 0x0 PUSH1 0x1F NOT PUSH1 0x1F DUP4 ADD AND SWAP1 POP SWAP2 SWAP1 POP JUMP JUMPDEST PUSH1 0x0 PUSH2 0x85D DUP3 PUSH2 0x7FB JUMP JUMPDEST PUSH2 0x867 DUP2 DUP6 PUSH2 0x806 JUMP JUMPDEST SWAP4 POP PUSH2 0x877 DUP2 DUP6 PUSH1 0x20 DUP7 ADD PUSH2 0x817 JUMP JUMPDEST PUSH2 0x880 DUP2 PUSH2 0x841 JUMP JUMPDEST DUP5 ADD SWAP2 POP POP SWAP3 SWAP2 POP POP JUMP JUMPDEST PUSH2 0x894 DUP2 PUSH2 0x798 JUMP JUMPDEST DUP3 MSTORE POP POP JUMP JUMPDEST PUSH1 0x0 PUSH1 0xA0 DUP3 ADD SWAP1 POP DUP2 DUP2 SUB PUSH1 0x0 DUP4 ADD MSTORE PUSH2 0x8B4 DUP2 DUP9 PUSH2 0x852 JUMP JUMPDEST SWAP1 POP DUP2 DUP2 SUB PUSH1 0x20 DUP4 ADD MSTORE PUSH2 0x8C8 DUP2 DUP8 PUSH2 0x852 JUMP JUMPDEST SWAP1 POP PUSH2 0x8D7 PUSH1 0x40 DUP4 ADD DUP7 PUSH2 0x88B JUMP JUMPDEST DUP2 DUP2 SUB PUSH1 0x60 DUP4 ADD MSTORE PUSH2 0x8E9 DUP2 DUP6 PUSH2 0x852 JUMP JUMPDEST SWAP1 POP DUP2 DUP2 SUB PUSH1 0x80 DUP4 ADD MSTORE PUSH2 0x8FD DUP2 DUP5 PUSH2 0x852 JUMP JUMPDEST SWAP1 POP SWAP7 SWAP6 POP POP POP POP POP POP JUMP JUMPDEST PUSH1 0x0 DUP1 REVERT JUMPDEST PUSH1 0x0 DUP1 REVERT JUMPDEST PUSH32 0x4E487B7100000000000000000000000000000000000000000000000000000000 PUSH1 0x0 MSTORE PUSH1 0x41 PUSH1 0x4 MSTORE PUSH1 0x24 PUSH1 0x0 REVERT JUMPDEST PUSH2 0x94B DUP3 PUSH2 0x841 JUMP JUMPDEST DUP2 ADD DUP2 DUP2 LT PUSH8 0xFFFFFFFFFFFFFFFF DUP3 GT OR ISZERO PUSH2 0x96A JUMPI PUSH2 0x969 PUSH2 0x913 JUMP JUMPDEST JUMPDEST DUP1 PUSH1 0x40 MSTORE POP POP POP JUMP JUMPDEST PUSH1 0x0 PUSH2 0x97D PUSH2 0x784 JUMP JUMPDEST SWAP1 POP PUSH2 0x989 DUP3 DUP3 PUSH2 0x942 JUMP JUMPDEST SWAP2 SWAP1 POP JUMP JUMPDEST PUSH1 0x0 PUSH8 0xFFFFFFFFFFFFFFFF DUP3 GT ISZERO PUSH2 0x9A9 JUMPI PUSH2 0x9A8 PUSH2 0x913 JUMP JUMPDEST JUMPDEST PUSH2 0x9B2 DUP3 PUSH2 0x841 JUMP JUMPDEST SWAP1 POP PUSH1 0x20 DUP2 ADD SWAP1 POP SWAP2 SWAP1 POP JUMP JUMPDEST DUP3 DUP2 DUP4 CALLDATACOPY PUSH1 0x0 DUP4 DUP4 ADD MSTORE POP POP POP JUMP JUMPDEST PUSH1 0x0 PUSH2 0x9E1 PUSH2 0x9DC DUP5 PUSH2 0x98E JUMP JUMPDEST PUSH2 0x973 JUMP JUMPDEST SWAP1 POP DUP3 DUP2 MSTORE PUSH1 0x20 DUP2 ADD DUP5 DUP5 DUP5 ADD GT ISZERO PUSH2 0x9FD JUMPI PUSH2 0x9FC PUSH2 0x90E JUMP JUMPDEST JUMPDEST PUSH2 0xA08 DUP5 DUP3 DUP6 PUSH2 0x9BF JUMP JUMPDEST POP SWAP4 SWAP3 POP POP POP JUMP JUMPDEST PUSH1 0x0 DUP3 PUSH1 0x1F DUP4 ADD SLT PUSH2 0xA25 JUMPI PUSH2 0xA24 PUSH2 0x909 JUMP JUMPDEST JUMPDEST DUP2 CALLDATALOAD PUSH2 0xA35 DUP5 DUP3 PUSH1 0x20 DUP7 ADD PUSH2 0x9CE JUMP JUMPDEST SWAP2 POP POP SWAP3 SWAP2 POP POP JUMP JUMPDEST PUSH1 0x0 DUP1 PUSH1 0x0 DUP1 PUSH1 0x0 PUSH1 0xA0 DUP7 DUP9 SUB SLT ISZERO PUSH2 0xA5A JUMPI PUSH2 0xA59 PUSH2 0x78E JUMP JUMPDEST JUMPDEST PUSH1 0x0 DUP7 ADD CALLDATALOAD PUSH8 0xFFFFFFFFFFFFFFFF DUP2 GT ISZERO PUSH2 0xA78 JUMPI PUSH2 0xA77 PUSH2 0x793 JUMP JUMPDEST JUMPDEST PUSH2 0xA84 DUP9 DUP3 DUP10 ADD PUSH2 0xA10 JUMP JUMPDEST SWAP6 POP POP PUSH1 0x20 DUP7 ADD CALLDATALOAD PUSH8 0xFFFFFFFFFFFFFFFF DUP2 GT ISZERO PUSH2 0xAA5 JUMPI PUSH2 0xAA4 PUSH2 0x793 JUMP JUMPDEST JUMPDEST PUSH2 0xAB1 DUP9 DUP3 DUP10 ADD PUSH2 0xA10 JUMP JUMPDEST SWAP5 POP POP PUSH1 0x40 PUSH2 0xAC2 DUP9 DUP3 DUP10 ADD PUSH2 0x7B9 JUMP JUMPDEST SWAP4 POP POP PUSH1 0x60 DUP7 ADD CALLDATALOAD PUSH8 0xFFFFFFFFFFFFFFFF DUP2 GT ISZERO PUSH2 0xAE3 JUMPI PUSH2 0xAE2 PUSH2 0x793 JUMP JUMPDEST JUMPDEST PUSH2 0xAEF DUP9 DUP3 DUP10 ADD PUSH2 0xA10 JUMP JUMPDEST SWAP3 POP POP PUSH1 0x80 DUP7 ADD CALLDATALOAD PUSH8 0xFFFFFFFFFFFFFFFF DUP2 GT ISZERO PUSH2 0xB10 JUMPI PUSH2 0xB0F PUSH2 0x793 JUMP JUMPDEST JUMPDEST PUSH2 0xB1C DUP9 DUP3 DUP10 ADD PUSH2 0xA10 JUMP JUMPDEST SWAP2 POP POP SWAP3 SWAP6 POP SWAP3 SWAP6 SWAP1 SWAP4 POP JUMP JUMPDEST PUSH1 0x0 PUSH1 0x20 DUP3 ADD SWAP1 POP PUSH2 0xB3E PUSH1 0x0 DUP4 ADD DUP5 PUSH2 0x88B JUMP JUMPDEST SWAP3 SWAP2 POP POP JUMP JUMPDEST PUSH32 0x4E487B7100000000000000000000000000000000000000000000000000000000 PUSH1 0x0 MSTORE PUSH1 0x22 PUSH1 0x4 MSTORE PUSH1 0x24 PUSH1 0x0 REVERT JUMPDEST PUSH1 0x0 PUSH1 0x2 DUP3 DIV SWAP1 POP PUSH1 0x1 DUP3 AND DUP1 PUSH2 0xB8B JUMPI PUSH1 0x7F DUP3 AND SWAP2 POP JUMPDEST PUSH1 0x20 DUP3 LT DUP2 SUB PUSH2 0xB9E JUMPI PUSH2 0xB9D PUSH2 0xB44 JUMP JUMPDEST JUMPDEST POP SWAP2 SWAP1 POP JUMP JUMPDEST PUSH1 0x0 DUP2 SWAP1 POP DUP2 PUSH1 0x0 MSTORE PUSH1 0x20 PUSH1 0x0 KECCAK256 SWAP1 POP SWAP2 SWAP1 POP JUMP JUMPDEST PUSH1 0x0 PUSH1 0x20 PUSH1 0x1F DUP4 ADD DIV SWAP1 POP SWAP2 SWAP1 POP JUMP JUMPDEST PUSH1 0x0 DUP3 DUP3 SHL SWAP1 POP SWAP3 SWAP2 POP POP JUMP JUMPDEST PUSH1 0x0 PUSH1 0x8 DUP4 MUL PUSH2 0xC06 PUSH32 0xFFFFFFFFFFFFFFFFFFFFFFFFFFFFFFFFFFFFFFFFFFFFFFFFFFFFFFFFFFFFFFFF DUP3 PUSH2 0xBC9 JUMP JUMPDEST PUSH2 0xC10 DUP7 DUP4 PUSH2 0xBC9 JUMP JUMPDEST SWAP6 POP DUP1 NOT DUP5 AND SWAP4 POP DUP1 DUP7 AND DUP5 OR SWAP3 POP POP POP SWAP4 SWAP3 POP POP POP JUMP JUMPDEST PUSH1 0x0 DUP2 SWAP1 POP SWAP2 SWAP1 POP JUMP JUMPDEST PUSH1 0x0 PUSH2 0xC4D PUSH2 0xC48 PUSH2 0xC43 DUP5 PUSH2 0x798 JUMP JUMPDEST PUSH2 0xC28 JUMP JUMPDEST PUSH2 0x798 JUMP JUMPDEST SWAP1 POP SWAP2 SWAP1 POP JUMP JUMPDEST PUSH1 0x0 DUP2 SWAP1 POP SWAP2 SWAP1 POP JUMP JUMPDEST PUSH2 0xC67 DUP4 PUSH2 0xC32 JUMP JUMPDEST PUSH2 0xC7B PUSH2 0xC73 DUP3 PUSH2 0xC54 JUMP JUMPDEST DUP5 DUP5 SLOAD PUSH2 0xBD6 JUMP JUMPDEST DUP3 SSTORE POP POP POP POP JUMP JUMPDEST PUSH1 0x0 SWAP1 JUMP JUMPDEST PUSH2 0xC90 PUSH2 0xC83 JUMP JUMPDEST PUSH2 0xC9B DUP2 DUP5 DUP5 PUSH2 0xC5E JUMP JUMPDEST POP POP POP JUMP JUMPDEST JUMPDEST DUP2 DUP2 LT ISZERO PUSH2 0xCBF JUMPI PUSH2 0xCB4 PUSH1 0x0 DUP3 PUSH2 0xC88 JUMP JUMPDEST PUSH1 0x1 DUP2 ADD SWAP1 POP PUSH2 0xCA1 JUMP JUMPDEST POP POP JUMP JUMPDEST PUSH1 0x1F DUP3 GT ISZERO PUSH2 0xD04 JUMPI PUSH2 0xCD5 DUP2 PUSH2 0xBA4 JUMP JUMPDEST PUSH2 0xCDE DUP5 PUSH2 0xBB9 JUMP JUMPDEST DUP2 ADD PUSH1 0x20 DUP6 LT ISZERO PUSH2 0xCED JUMPI DUP2 SWAP1 POP JUMPDEST PUSH2 0xD01 PUSH2 0xCF9 DUP6 PUSH2 0xBB9 JUMP JUMPDEST DUP4 ADD DUP3 PUSH2 0xCA0 JUMP JUMPDEST POP POP JUMPDEST POP POP POP JUMP JUMPDEST PUSH1 0x0 DUP3 DUP3 SHR SWAP1 POP SWAP3 SWAP2 POP POP JUMP JUMPDEST PUSH1 0x0 PUSH2 0xD27 PUSH1 0x0 NOT DUP5 PUSH1 0x8 MUL PUSH2 0xD09 JUMP JUMPDEST NOT DUP1 DUP4 AND SWAP2 POP POP SWAP3 SWAP2 POP POP JUMP JUMPDEST PUSH1 0x0 PUSH2 0xD40 DUP4 DUP4 PUSH2 0xD16 JUMP JUMPDEST SWAP2 POP DUP3 PUSH1 0x2 MUL DUP3 OR SWAP1 POP SWAP3 SWAP2 POP POP JUMP JUMPDEST PUSH2 0xD59 DUP3 PUSH2 0x7FB JUMP JUMPDEST PUSH8 0xFFFFFFFFFFFFFFFF DUP2 GT ISZERO PUSH2 0xD72 JUMPI PUSH2 0xD71 PUSH2 0x913 JUMP JUMPDEST JUMPDEST PUSH2 0xD7C DUP3 SLOAD PUSH2 0xB73 JUMP JUMPDEST PUSH2 0xD87 DUP3 DUP3 DUP6 PUSH2 0xCC3 JUMP JUMPDEST PUSH1 0x0 PUSH1 0x20 SWAP1 POP PUSH1 0x1F DUP4 GT PUSH1 0x1 DUP2 EQ PUSH2 0xDBA JUMPI PUSH1 0x0 DUP5 ISZERO PUSH2 0xDA8 JUMPI DUP3 DUP8 ADD MLOAD SWAP1 POP JUMPDEST PUSH2 0xDB2 DUP6 DUP3 PUSH2 0xD34 JUMP JUMPDEST DUP7 SSTORE POP PUSH2 0xE1A JUMP JUMPDEST PUSH1 0x1F NOT DUP5 AND PUSH2 0xDC8 DUP7 PUSH2 0xBA4 JUMP JUMPDEST PUSH1 0x0 JUMPDEST DUP3 DUP2 LT ISZERO PUSH2 0xDF0 JUMPI DUP5 DUP10 ADD MLOAD DUP3 SSTORE PUSH1 0x1 DUP3 ADD SWAP2 POP PUSH1 0x20 DUP6 ADD SWAP5 POP PUSH1 0x20 DUP2 ADD SWAP1 POP PUSH2 0xDCB JUMP JUMPDEST DUP7 DUP4 LT ISZERO PUSH2 0xE0D JUMPI DUP5 DUP10 ADD MLOAD PUSH2 0xE09 PUSH1 0x1F DUP10 AND DUP3 PUSH2 0xD16 JUMP JUMPDEST DUP4 SSTORE POP JUMPDEST PUSH1 0x1 PUSH1 0x2 DUP9 MUL ADD DUP9 SSTORE POP POP POP JUMPDEST POP POP POP POP POP POP JUMP JUMPDEST PUSH32 0x4E487B7100000000000000000000000000000000000000000000000000000000 PUSH1 0x0 MSTORE PUSH1 0x32 PUSH1 0x4 MSTORE PUSH1 0x24 PUSH1 0x0 REVERT INVALID LOG2 PUSH5 0x6970667358 0x22 SLT KECCAK256 0xC5 0x23 TIMESTAMP 0xD6 EXTCODECOPY NOT DUP12 0xBC PUSH30 0xFD7A6690AFA086275C39B8007D93EB5748D4BC94BB514A64736F6C634300 ADDMOD 0x1E STOP CALLER "
				},
				"gasEstimates": {
					"creation": {
						"codeDepositCost": "743800",
						"executionCost": "25045",
						"totalCost": "768845"
					},
					"external": {
						"baterias(uint256)": "infinite",
						"consultarBateria(uint256)": "infinite",
						"dono()": "2489",
						"registrarBateria(string,string,uint256,string,string)": "infinite",
						"totalBaterias()": "2511"
					}
				},
				"methodIdentifiers": {
					"baterias(uint256)": "7da30b73",
					"consultarBateria(uint256)": "bd8261fe",
					"dono()": "70514bea",
					"registrarBateria(string,string,uint256,string,string)": "99ce4f3e",
					"totalBaterias()": "ce6bf005"
				}
			},
			"storageLayout": {
				"storage": [
					{
						"astId": 4,
						"contract": "ControleBaterias.sol:RegistroDeBaterias",
						"label": "dono",
						"offset": 0,
						"slot": "0",
						"type": "t_address"
					},
					{
						"astId": 28,
						"contract": "ControleBaterias.sol:RegistroDeBaterias",
						"label": "baterias",
						"offset": 0,
						"slot": "1",
						"type": "t_array(t_struct(Bateria)24_storage)dyn_storage"
					}
				],
				"types": {
					"t_address": {
						"encoding": "inplace",
						"label": "address",
						"numberOfBytes": "20"
					},
					"t_array(t_struct(Bateria)24_storage)dyn_storage": {
						"base": "t_struct(Bateria)24_storage",
						"encoding": "dynamic_array",
						"label": "struct RegistroDeBaterias.Bateria[]",
						"numberOfBytes": "32"
					},
					"t_string_storage": {
						"encoding": "bytes",
						"label": "string",
						"numberOfBytes": "32"
					},
					"t_struct(Bateria)24_storage": {
						"encoding": "inplace",
						"label": "struct RegistroDeBaterias.Bateria",
						"members": [
							{
								"astId": 15,
								"contract": "ControleBaterias.sol:RegistroDeBaterias",
								"label": "tipo",
								"offset": 0,
								"slot": "0",
								"type": "t_string_storage"
							},
							{
								"astId": 17,
								"contract": "ControleBaterias.sol:RegistroDeBaterias",
								"label": "uso",
								"offset": 0,
								"slot": "1",
								"type": "t_string_storage"
							},
							{
								"astId": 19,
								"contract": "ControleBaterias.sol:RegistroDeBaterias",
								"label": "tensao",
								"offset": 0,
								"slot": "2",
								"type": "t_uint256"
							},
							{
								"astId": 21,
								"contract": "ControleBaterias.sol:RegistroDeBaterias",
								"label": "dataProd",
								"offset": 0,
								"slot": "3",
								"type": "t_string_storage"
							},
							{
								"astId": 23,
								"contract": "ControleBaterias.sol:RegistroDeBaterias",
								"label": "lote",
								"offset": 0,
								"slot": "4",
								"type": "t_string_storage"
							}
						],
						"numberOfBytes": "160"
					},
					"t_uint256": {
						"encoding": "inplace",
						"label": "uint256",
						"numberOfBytes": "32"
					}
				}
			},
			"userdoc": {
				"kind": "user",
				"methods": {
					"consultarBateria(uint256)": {
						"notice": "Retorna os dados de uma bateria pelo índice"
					},
					"registrarBateria(string,string,uint256,string,string)": {
						"notice": "Registra uma nova bateria"
					},
					"totalBaterias()": {
						"notice": "Retorna o total de baterias registradas"
					}
				},
				"notice": "Armazena dados de cada bateria produzida pela fábrica.",
				"version": 1
			}
		}
	}
}